:020000040800F2
:10000000D8060020890100081B16000865120008A8
:10001000191600088F02000877160008000000007B
:100020000000000000000000000000001F16000893
:10003000F9040008000000001D1600082116000841
:10004000A3010008A3010008A3010008A301000800
:10005000A3010008A3010008A3010008A3010008F0
:10006000A3010008A3010008A3010008A3010008E0
:10007000A3010008A3010008A3010008A3010008D0
:10008000A3010008A3010008A3010008A3010008C0
:10009000A3010008A3010008A3010008A3010008B0
:1000A000A3010008A3010008A3010008A3010008A0
:1000B000A3010008A3010008A3010008A301000890
:1000C000A3010008A3010008A3010008A301000880
:1000D000A3010008A3010008A3010008A301000870
:1000E000A3010008A3010008A301000800F002F822
:1000F00000F03AF80AA090E8000C82448344AAF188
:100100000107DA4501D100F02FF8AFF2090EBAE885
:100110000F0013F0010F18BFFB1A43F0010318473B
:100120004416000064160000103A24BF78C878C155
:10013000FAD8520724BF30C830C144BF04680C60ED
:10014000704700000023002400250026103A28BF35
:1001500078C1FBD8520728BF30C148BF0B60704739
:100160001FB51FBD10B510BD00F058F81146FFF7C0
:10017000F7FF01F091FA00F076F803B4FFF7F2FF11
:1001800003BC00F07DF8000009488047094800479B
:10019000FEE7FEE7FEE7FEE7FEE7FEE7FEE7FEE737
:1001A000FEE7FEE704480549054A064B7047000094
:1001B00075160008ED000008D8000020D8060020C1
:1001C000D8020020D80200204FF0000200B51346EC
:1001D00094469646203922BFA0E80C50A0E80C5067
:1001E000B1F12001BFF4F7AF090728BFA0E80C5018
:1001F00048BF0CC05DF804EB890028BF40F8042B11
:1002000008BF704748BF20F8022B11F0804F18BF7D
:1002100000F8012B7047704770477047754600F033
:100220002BF8AE4605006946534620F00700854688
:1002300018B020B5FFF7B6FFBDE820404FF000062C
:100240004FF000074FF000084FF0000B21F00701BE
:10025000AC46ACE8C009ACE8C009ACE8C009ACE801
:10026000C0098D46704710B50446AFF300802046A4
:10027000BDE81040FFF781BF0048704774000020C0
:1002800001491820ABBEFEE7260002007047FEE7DA
:1002900000F00F01000900EB800001EB4000C0B24C
:1002A00070470A21B0FBF1F201FB1202B0FBF1F042
:1002B00002EB0010C0B2704710B5002000F02CF81F
:1002C000C00910BD10B5042000F026F8BDE81040AC
:1002D000FFF7DEBF10B5032000F01EF8BDE81040A8
:1002E000FFF7D6BF10B5022000F016F8BDE81040A9
:1002F00000F03F00FFF7CCBF10B5012000F00CF874
:10030000BDE81040FFF7C4BF10B5052000F004F8A9
:10031000BDE81040FFF7BCBF31B582B0094D4FF4C6
:100320007A740094012302AAD021286800F0D4FB3B
:100330000094012301AAD021286800F0ABFA9DF8AF
:1003400004003EBD0000002010B50020FFF7E4FFD0
:10035000BDE8104000F07F00FFF79ABF3EB50446AD
:10036000FFF7B0FF8DF80000FFF7CEFF8DF801001A
:1003700000F02BF8ADF80200FFF7ACFF8DF8040099
:10038000FFF7B0FF8DF80500FFF7B6FF8DF8060008
:10039000FFF7DAFF8DF8070000F00EF88DF808007F
:1003A00000F010F88DF80900009820600198606056
:1003B000BDF8080020813EBD10B50820FFF7ACFF56
:1003C00040B210BD0920FFF7A7BF10B51020FFF7FE
:1003D000A3FF642100FB01F40620FFF79DFFFFF758
:1003E00057FF204410BD000002490860002000F0C3
:1003F00003B800000000002010B508B1802400E020
:1004000000240020FFF788FF00F07F012143BDE8B2
:100410001040002000F030B810B5FFF742FF014651
:10042000BDE81040042000F027B810B5FFF739FFF1
:100430000146BDE81040032000F01EB810B500F0E2
:100440003F00FFF72EFF0146BDE81040022000F0FC
:1004500013B810B5FFF725FF0146BDE81040012095
:1004600000F00AB810B5FFF71CFF0146BDE81040C8
:10047000052000F001B800001CB502238DF804002F
:100480004FF47A70009004488DF8051001AAD0212D
:10049000006800F021FB1CBD0000002010B50446E0
:1004A000FFF70AFF2043FFF7FCFE0146BDE81040BE
:1004B0000020FFF7E1BF10B50C46C1B20820FFF7DE
:1004C000DBFF2146BDE810400920FFF7D5BF70B51E
:1004D00004466425B0FBF5F0C1B21020FFF7CCFF55
:1004E000B4FBF5F005FB1040FFF7DBFEBDE8704004
:1004F00001460620FFF7C0BF7047000070B50446F4
:1005000000F0FEF80546601C02D004480078044460
:1005100000F0F6F8401BA042FAD370BD04000020A2
:100520002DE9F84FDFF8B891002409F1040A0AF127
:10053000040B23460F270BF1040EC9E00125A5404B
:100540002A40AA427DD1674ED1F804C0ACEB060820
:10055000B44532D014DCBCF1030F3AD009DCBCF155
:10056000000F2AD0BCF1010F1CD0BCF1020F31D119
:100570001DE0BCF1110F17D0BCF1120F2AD119E008
:10058000B8F5881F19D006DCB8F5803F15D0B8F54E
:10059000801F1FD111E0B8F5001F0ED0B8F5041F61
:1005A00018D10AE0CB6815E0CB681B1D12E0CB68C0
:1005B00008330FE0CB680C330CE08B682BB1012BB8
:1005C0004FF0080303D0456104E0042302E0056115
:1005D00000E00023FF2A01D8064601E000F10406EE
:1005E0004FEA840501D9A5F12005D6F8008007FA65
:1005F00005FC28EA0C0803FA05F548EA0508C6F8E0
:1006000000804D68ED0062D5374DAE6946F00106B9
:10061000AE61AD6924F0030605F001050095334D88
:1006200006EB050CDCF80850A607360F07FA06F8AB
:1006300025EA0805DFF8B880404503D14FF00008EF
:1006400017E044E0DFF8AC80404502D14FF00108EC
:100650000FE0DFF8A480404502D14FF0020808E027
:10066000DFF89880404502D14FF0030801E04FF0D9
:10067000040808FA06F848EA0508CCF808804D682E
:10068000D9F80060ED034D4601D5164300E09643CE
:100690002E604D68DAF80060AD03554601D516436B
:1006A00000E096432E604D68DBF80060ED025D4689
:1006B00001D5164300E096432E604D68DEF80060D9
:1006C000AD02754601D5164300E096432E60641CCA
:1006D0000D682A46E5407FF431AFBDE8F88F000091
:1006E0000004014000001110001002400000014011
:1006F00000080140000C01400010014000140140BE
:1007000001488068704700000400002070B50400B4
:1007100025D094F83D00002520B984F83C502046AF
:1007200000F070FA242084F83D002068016821F070
:10073000010101602068016841F400410160206806
:10074000016821F40041016000F0A2FB4D4A61689C
:10075000914201D84C4900E04C49884201D2012025
:1007600070BD4B492368B0FBF1F15E6826F03F068F
:100770000E435E606368934206D94FF49673594303
:100780004FF47A73B1FBF3F12368491C1E6A26F01B
:100790003F06314319626168914210D84900401EFA
:1007A000B0FBF1F2521CC2F30B02042A01D2042066
:1007B00022E0B0FBF1F0401CC0F30B001CE0A2688B
:1007C000F2B301EBC10303EB0116431EB3FBF6F3D7
:1007D0005B1C43F480431B0549D092B301EBC1027B
:1007E00002EB0111401EB0FBF1F0401CC0F30B0006
:1007F00040F4804040F400402168CA694CF6FF7321
:100800009A431043C861D4E9071001432068026885
:1008100022F0C00211430160D4E9030101432068C2
:10082000826848F2FF339A4311438160D4E905019D
:1008300008432168CA6822F0FF021043C86001E043
:100840000EE016E02068016841F0010101602564B6
:10085000202084F83D00256384F83E50002070BDC0
:1008600001EB4106431EB3FBF6F35B1CB3E701202B
:10087000C2E701EB4101401EB0FBF1F0401CC0F3A8
:100880000B00B7E7A086010080841E0000093D0030
:1008900040420F002DE9F84F0025DDF828909846DA
:1008A00017468A4604460095FFF72AFF064694F845
:1008B0003D0020287AD11923012283492046009641
:1008C00000F0D2FD0028F5D194F83C0001286DD04D
:1008D000012084F83C0020680168C90703D1016841
:1008E00041F0010101602068016821F400610160AC
:1008F000222084F83D00102084F83E0025646762C1
:10090000A4F82A80608D20857048E06233464A460C
:100910005146204600F0BEFC00287DD1208DDFF836
:10092000B081202768B1012814D00228206801680E
:100930001ED041F4806101602068416980690090A7
:10094000B5E02068416981690091016841F4007156
:100950000160ACE02068016821F48061016072B63A
:100960002068416981690091016841F400710AE0E1
:1009700041F40061016072B62068416981690091AB
:10098000016821F48061016062B690E0032868D8B4
:1009900001280CD002284B464FF000024146204669
:1009A00000960FD000F060FDB0BB10E08AE0324648
:1009B0004946204600F0D7FD70BB20680069616A97
:1009C00008706BE000F050FD30BB72B634E0206878
:1009D000016821F48061016072B620680069616A73
:1009E0000870606A401C6062208D401E2085608D0A
:1009F000401E6085374846F2A8110068B0FBF1F050
:100A0000C0EBC00000EB80000090401E009008D0BA
:100A100020684069C04300E029E040070CD50098F9
:100A2000F3E744F8305F6773A573206940F0200056
:100A3000206162B625731AE02068016841F40071F4
:100A4000016020680069616A0870606A401C606229
:100A5000218D491E2185618D491E618562B62168FF
:100A60001AE032464946204600F07DFD10B10120D3
:100A7000BDE8F88F20680069616A0870606A401CF0
:100A80006062218D491E2185618D491E6185216825
:100A90004A69D24352070AD409690170606A401C4E
:100AA0006062208D401E2085608D401E6085208DF7
:100AB00000287FF46BAF84F83D7084F83E5084F8D2
:100AC0003C50D5E70220D3E7020010000000FFFFF2
:100AD00004000100100000202DE9F84F1F46904649
:100AE0008A460446DDF82890FFF70AFE054694F88A
:100AF0003D0020287FD1192301224049204600953E
:100B000000F0B2FC002876D194F83C00012872D0A5
:100B1000012084F83C0020680168C90703D10168FE
:100B200041F0010101602068016821F40061016069
:100B3000212084F83D00102084F83E000026266421
:100B4000C4F824806785608D20852D48E0622B469F
:100B50004A465146204600F013FC90B9206841698E
:100B60008069009036E02A464946204600F02EFD76
:100B700050B1206C042804D12068016841F4007150
:100B800001600120BDE8F88F606A21680078086183
:100B9000606A401C6062618D491E6185218D491E1D
:100BA00089B2218522685369DB435B070BD451B1BD
:100BB00000781061606A401C6062608D401E608534
:100BC000208D401E20852A464946204600F026FCFE
:100BD0000028CED1208D0028C5D154F83D0B0168E6
:100BE00041F400710160202004F81E09E677667761
:100BF0000020C7E7FFE70220C4E700000200100062
:100C00000000FFFF10B586B0002100910191029114
:100C1000039100680F4988421AD10F4CA06940F037
:100C20000800A061A069694600F008000490C02097
:100C3000009012200190032003900848FFF770FCF9
:100C4000E06940F40010E061E06900F400100490F5
:100C500006B010BD0054004000100240000C0140DE
:100C600002488168027811448160704704000020C6
:100C7000074810B5016841F010010160032000F041
:100C80005FF80F2000F006F800F024F8002010BDF7
:100C90000020024070B50D4D04464FF47A7128785B
:100CA000B1FBF0F00A490968B1FBF0F000F0C6FAB8
:100CB00048B9102C07D200222146501E00F020F81F
:100CC00000206C6070BD012070BD00000400002099
:100CD00010000020094808B5816941F001018161D7
:100CE000816901F001010091C16941F08051C16148
:100CF000C06900F08050009008BD00000010024064
:100D0000F0B40E4B1B680C46C3F30223C3F1070576
:100D1000042D00D90425191D072901D2002300E064
:100D2000DB1E012606FA05F1491E214099409E402E
:100D3000761E16403143F0BC00F09EBC0CED00E086
:100D4000064900F0070208684FF6FF03184040EA22
:100D50000220034A10430860704700000CED00E0D9
:100D60000000FA052DE9F0470F46050061D0434E1B
:100D7000306800F00700B84209D2306820F0070060
:100D800038433060306800F00700B84251D128681D
:100D90003B4C810712D5400703D5606840F4E06002
:100DA00060602878000703D5606840F46050606098
:100DB0006068A96820F0F000084360602878C007E8
:100DC00028D06868012810D02168022810D089072F
:100DD00000292EDA616821F0030101436160FFF709
:100DE0008FFC804641F288390DE021688903EFE7E6
:100DF0008901EDE7FFF784FCA0EB0801494502D922
:100E00000320BDE8F0876068696800F00C00B0EB73
:100E1000810FEFD1306800F00700B8420BD930687D
:100E200020F0070038433060306800F00700B84217
:100E300001D00120E5E72878400705D56068E9681A
:100E400020F4E060084360602878000706D56068F9
:100E5000296920F4605040EAC100606000F028F881
:100E60006168084AC1F30311515CC8400649086033
:100E700006480068FFF70EFF0020C2E7002002408E
:100E8000001002404C17000810000020080000204D
:100E90000448054900684968044AC1F30221515CCD
:100EA000C840704710000020001002405C17000886
:100EB00012A185B00FC98DE80F0014A0144A006874
:100EC00004905168134801F00C03042B10D0082B38
:100ED0000ED1C1F38343C9031DF803000AD551683D
:100EE00004AAC1F34041515C0A4A5043B0FBF1F0FF
:100EF00005B0704708494843FAE7000002030405BB
:100F0000060708090A0B0C0D0E0F10100102000055
:100F10000010024000127A0000093D002DE9F84F50
:100F2000040070D02078C04DC00749D06868C0F375
:100F30008100012807D06868C0F38100022809D128
:100F40006868C00306D52868800339D56068002822
:100F5000E7D035E06068B0F5803F0BD010B1B0F558
:100F6000A02F11D0286820F480302860286820F451
:100F7000802002E0286840F480302860606890B1EA
:100F8000FFF7BEFB06460AE0286840F48020286090
:100F9000F0E700BFFFF7B4FB801B642873D8286814
:100FA0008003F7D50CE0FFF7ABFB064605E000BF7A
:100FB000FFF7A6FB801B6428F0D828688003F7D4CD
:100FC00020789A4E80074FF001094FF0000839D57C
:100FD000686810F00C0F07D06868C0F38100022821
:100FE00009D16868C00306D42868800714D5206931
:100FF000012808D110E02069B0B1C6F80090FFF7D1
:101000007FFB074605E00AE1FFF77AFBC01B0228D9
:10101000C4D828688007F7D52868616920F0F800EF
:1010200040EAC10028600DE0C6F80080FFF768FBC9
:10103000074604E0FFF764FBC01B022823D828689A
:101040008007F7D4207800072CD57948A169D9B159
:10105000C0F80090FFF754FB074604E0FFF750FB91
:10106000C01B02280FD8686A8007F7D571484FF473
:10107000FA510068B0FBF1F0009000BF0098411EEB
:101080000091FAD20EE080E0C0F80080FFF738FB54
:10109000074604E0FFF734FBC01B022875D8686AD6
:1010A0008007F7D42078400760D5E8690027C000A2
:1010B00008D4E86940F08050E861E869012700F051
:1010C000805000905C480168C90513D401688346CC
:1010D00041F480710160FFF713FB824606E000BF18
:1010E000FFF70EFBA0EB0A0064284ED8DBF80000E7
:1010F000C005F5D5E06801280AD008B1052813D04D
:10110000286A20F001002862286A20F0040002E02A
:10111000286A40F001002862E06841F2883B98B1FB
:10112000FFF7EEFA82460BE0286A40F004002862DE
:10113000EEE700BFFFF7E4FAA0EB0A0159455AD8E1
:10114000286A8007F6D50CE0FFF7DAFA824605E058
:10115000FFF7D6FAA0EB0A0159454CD8286A800758
:10116000F6D41FB1E86920F08050E861E06988B3E7
:101170006968C1F38101022944D00228C6F8608061
:1011800004D0FFF7BDFA044638E034E0FFF7B8FAC0
:10119000074604E0FFF7B4FAC01B02282BD82868E2
:1011A0008001F7D4206AB0F5803F05D16868A16856
:1011B00020F4003008436860D4E9080108436968F6
:1011C00021F4741108436860C6F86090FFF798FA3C
:1011D000044606E025E000BFFFF792FA001B022854
:1011E00009D828688001F7D51BE000BFFFF788FA0F
:1011F000001B022802D90320BDE8F88F286880016F
:10120000F4D40EE00128F7D06868226A00F4803137
:10121000914204D1616A00F47010884201D001202B
:10122000EAE70020E8E70000001002400000424228
:1012300080044242100000200070004010B5401EA3
:10124000B0F1807F01D3012010BD4FF0E024606138
:101250000F21601700F010FA0020A0610720206124
:10126000002010BDFEE701684A69D24352050FD441
:101270006FF480624A61002140F8301F20224273DF
:101280008173026942F00402026101730120704718
:10129000002070472DE9F84F0446C06A1E46934669
:1012A0000D4621680A6842F480620A60082807D067
:1012B000012805D010F5803F02D0206B112804D101
:1012C0002068016841F4807101604FF001195B46AC
:1012D000002249462046009600F0C6F84FF40078F8
:1012E00040B120680068C00501D5C4F840800320E3
:1012F000BDE8F88F2069DFF884A0B0F5804F0FD0EB
:101300000620216800EAD51747F0F000086133464F
:101310005A460AF10601204600F0DAF858BB03E00D
:10132000E8B240F001001CE02168E8B208613346F1
:101330005A465146204600F0CBF8E0B92068416992
:1013400081690091016841F4807101605B4600226F
:1013500049462046009600F087F80028C1D147F0A2
:10136000F1002168086133465A465146204600F094
:10137000AFF80028BCD00120BAE70000020001004D
:10138000F8B50446C06A1E460D461746082807D021
:10139000012805D010F5803F02D0206B122804D11F
:1013A0002068016841F480710160134600224FF00B
:1013B00001112046009600F057F840B120680068FF
:1013C000C00502D54FF4007020640320F8BD2069E9
:1013D000B0F5804F0ED00620216800EAD51040F00D
:1013E000F000086133463A460B49204600F070F899
:1013F00078B902E005F0FE0000E0E8B2216808617B
:10140000054933463A46891F204600F061F8002816
:10141000DCD00120F8BD00000800010070B51646C0
:101420000D4604460DE02046FFF71DFF08B10120E0
:1014300070BD681C05D0FFF763F9801BA84207D870
:1014400035B120684069C0434007ECD4002070BD2E
:10145000002044F8300F20216173A073216941F00E
:10146000200121612073E2E72DE9F0471E469046F6
:101470000D460446C1F30747DDF8209008E0701CD4
:1014800006D0FFF73DF9A0EB0900B0420FD876B1C6
:101490002068012F18D0806925EA00000004000CA4
:1014A00014D000214145EAD00020BDE8F08700209B
:1014B00044F8300F20216173A073216941F02001AD
:1014C000216120730120F0E74069E5E70121E9E7A8
:1014D0002DE9F0479A4691460E46044600254FF006
:1014E0002008C1F3074725E020684069C043400554
:1014F00014D42068016841F40071016021686FF420
:1015000080604861256384F83D8084F83E50206CFB
:1015100040F00400206484F83C501FE0B9F1FF3F24
:1015200008D0FFF7EDF8A0EB0A0149450CD8B9F156
:10153000000F09D02068012F13D0806926EA00002F
:101540000004000C0BD0CFE744F8305F84F80D8026
:10155000A573206940F02000206125730120BDE8BB
:10156000F0874069EAE72DE9F041002590460E46F4
:101570000446202717E04069C043C0060CD454F845
:10158000301B6FF01000486144F810596777A57759
:10159000206A2062257717E0FFF7B2F8A0EB080079
:1015A000B04208D83EB120684169C9434906E2D437
:1015B0000020BDE8F08144F8305F6773A5732069AF
:1015C00040F02000206125730120F2E770B5164637
:1015D0000D4604460DE02046FFF745FE08B1012008
:1015E00070BD681C05D0FFF78BF8801BA84207D898
:1015F00035B120684069C0430006ECD4002070BDBE
:10160000002044F8300F20216173A073216941F05C
:10161000200121612073E2E7FEE7FEE77047704793
:10162000FFF71EBB10B590B028216846FEF7CCFD31
:1016300014210AA8FEF7C8FD0220009001200490A2
:1016400010200024059007946846FFF767FC08B156
:1016500072B6FEE70F20CDE90A040C940D94002128
:101660000AA80E94FFF77EFB002801D072B6FEE7B1
:1016700010B010BD7047FEE70907090E002804DB13
:1016800000F1E02080F80014704700F00F0000F136
:10169000E02080F8141D70470EB5FFF7E9FAFFF758
:1016A000C1FF2648816941F00801816180692449B0
:1016B00000F00800009023484FF480420160224966
:1016C000416000218160C0E9031241618161C16113
:1016D0000162FFF71BF808B172B6FEE71948FEF782
:1016E00083FE00210720FEF7E6FE0B20FEF794FEA6
:1016F0000720FEF7B7FE40F2E670FEF7E8FE022094
:10170000FEF793FE0120FEF799FE2A20FEF7A1FEC8
:101710000020FEF7C3FE0B4C4FF47A756846FEF7C7
:101720001DFE009860650198A065BDF80800A4F84A
:101730005C002846FEF7E2FEF0E7000000100240E1
:101740000054004014000020A086010000000000AA
:101750000000000001020304060708090000000061
:101760000102030484170008000000201400000098
:10177000280100089817000814000020C406000083
:1017800044010008000000000100000010000000FB
:08179000000000000024F40039
:04000005080000ED02
:00000001FF
