:020000040800F2
:100000006816002021020008070F0008970E00085C
:10001000050F00088B0300084910000800000000CD
:10002000000000000000000000000000890100083E
:100030008D03000800000000CD010008090F000832
:100040003B0200083B0200083B0200083B0200089C
:100050003B0200083B0200083B0200083B0200088C
:100060003B0200083B0200083B0200083B0200087C
:100070003B0200083B0200083B0200083B0200086C
:100080003B0200083B0200083B0200083B0200085C
:100090003B0200083B0200083B0200083B0200084C
:1000A0003B020008890F00083B0200083B020008E1
:1000B0003B0200083B0200083B0200083B0200082C
:1000C0003B0200083B0200083B0200083B0200081C
:1000D0003B0200083B0200083B0200083B0200080C
:1000E0003B0200083B0200083B02000800F002F857
:1000F00000F03AF80AA090E8000C82448344AAF188
:100100000107DA4501D100F02FF8AFF2090EBAE885
:100110000F0013F0010F18BFFB1A43F0010318473B
:100120007C1900009C190000103A24BF78C878C1DF
:10013000FAD8520724BF30C830C144BF04680C60ED
:10014000704700000023002400250026103A28BF35
:1001500078C1FBD8520728BF30C148BF0B60704739
:100160001FB51FBD10B510BD00F0D6F81146FFF742
:10017000F7FF00F07BFF00F0F4F803B4FFF7F2FFA5
:1001800003BC00F0FBF80000224B19680868B0E8D7
:10019000F00F80F30988BFF36F8F4FF0000080F3FA
:1001A00011884EF00D0E70470000000006480068F0
:1001B000006880F3088862B661B6BFF34F8FBFF363
:1001C0006F8F00DF00BF00BF08ED00E0EFF3098094
:1001D000BFF36F8F0F4B1A6820E9F00F106008B55E
:1001E0004FF0500080F31188BFF34F8FBFF36F8F34
:1001F00001F072FA4FF0000080F31188BDE808406A
:1002000019680868B0E8F00F80F30988BFF36F8FB2
:10021000704700BF1C000020EFF30580704700000E
:100220000948804709480047FEE7FEE7FEE7FEE78A
:10023000FEE7FEE7FEE7FEE7FEE7FEE704480549C6
:10024000054A064B70470000850F0008ED000008C6
:100250006810002068160020681200206812002034
:1002600010B5203AC0F00B80B1E81850203AA0E851
:100270001850B1E81850A0E81850BFF4F5AF5FEA85
:10028000027C24BFB1E81850A0E8185044BF18C938
:1002900018C0BDE810405FEA827C24BF51F8043BDF
:1002A00040F8043B08BF7047D20728BF31F8023B33
:1002B00048BF11F8012B28BF20F8023B48BF00F8C7
:1002C000012B70474FF0000200B513469446964646
:1002D000203922BFA0E80C50A0E80C50B1F1200159
:1002E000BFF4F7AF090728BFA0E80C5048BF0CC007
:1002F0005DF804EB890028BF40F8042B08BF704765
:1003000048BF20F8022B11F0804F18BF00F8012BD6
:100310007047704770477047754600F02BF8AE463F
:1003200005006946534620F00700854618B020B501
:10033000FFF784FFBDE820404FF000064FF00007B4
:100340004FF000084FF0000B21F00701AC46ACE87D
:10035000C009ACE8C009ACE8C009ACE8C0098D46EA
:10036000704710B50446AFF300802046BDE810404A
:10037000FFF703BF0048704708100020014918200C
:10038000ABBEFEE7260002007047FEE770470000A4
:1003900070B5044600F00CF90546601C02D0044814
:1003A0000078044400F004F9401BA042FAD370BD69
:1003B0000C0000202DE9F84FDFF8B891002409F176
:1003C000040A0AF1040B23460F270BF1040EC9E0BF
:1003D0000125A5402A40AA427DD1674ED1F804C02C
:1003E000ACEB0608B44532D014DCBCF1030F3AD0B4
:1003F00009DCBCF1000F2AD0BCF1010F1CD0BCF10C
:10040000020F31D11DE0BCF1110F17D0BCF1120F5A
:100410002AD119E0B8F5881F19D006DCB8F5803F5D
:1004200015D0B8F5801F1FD111E0B8F5001F0ED010
:10043000B8F5041F18D10AE0CB6815E0CB681B1D86
:1004400012E0CB6808330FE0CB680C330CE08B680C
:100450002BB1012B4FF0080303D0456104E00423C6
:1004600002E0056100E00023FF2A01D8064601E012
:1004700000F104064FEA840501D9A5F12005D6F85C
:10048000008007FA05FC28EA0C0803FA05F548EA9B
:100490000508C6F800804D68ED0062D5374DAE699D
:1004A00046F00106AE61AD6924F0030605F00105D2
:1004B0000095334D06EB050CDCF80850A607360F07
:1004C00007FA06F825EA0805DFF8B880404503D1A9
:1004D0004FF0000817E044E0DFF8AC80404502D15F
:1004E0004FF001080FE0DFF8A480404502D14FF043
:1004F000020808E0DFF89880404502D14FF0030879
:1005000001E04FF0040808FA06F848EA0508CCF8BC
:1005100008804D68D9F80060ED034D4601D51643BB
:1005200000E096432E604D68DAF80060AD03554652
:1005300001D5164300E096432E604D68DBF800605D
:10054000ED025D4601D5164300E096432E604D68EE
:10055000DEF80060AD02754601D5164300E0964313
:100560002E60641C0D682A46E5407FF431AFBDE87B
:10057000F88F00000004014000001110001002403C
:100580000000014000080140000C01400010014043
:1005900000140140C26821EA02030A4043EA024112
:1005A000016170470AB1016170470904FBE700006F
:1005B00001488068704700000C00002002488168F4
:1005C00002781144816070470C000020074810B584
:1005D000016841F010010160032000F0A1F80F2034
:1005E00000F006F800F04AF8002010BD002002409C
:1005F00030B505461C4887B0816941F400618161CE
:10060000806906A900F40060009001A800F030F9AC
:1006100000F04EF91549164AB0FBF1F11548491E94
:100620000260416040F2E7320021C0E903218160AD
:10063000816100F015FB040012D10E4800F03EFB72
:1006400004000DD1192000F03DF8102D07D2002232
:100650002946192000F044F80748056000E001240D
:1006600007B0204630BD00000010024040420F009D
:10067000002C0140D0020020100000200F4808B5D7
:10068000816941F001018161816901F001010091FD
:10069000C16941F08051C161C069002200F0805001
:1006A00000900F21901E00F01BF80548416821F0D2
:1006B000E06141F00071416008BD0000001002409F
:1006C00000000140002809DB00F01F0201219140D9
:1006D0004009800000F1E020C0F8001170470000E0
:1006E000F0B40E4B1B680C46C3F30223C3F107059D
:1006F000042D00D90425191D072901D2002300E08B
:10070000DB1E012606FA05F1491E214099409E4054
:10071000761E16403143F0BC00F097BC0CED00E0B3
:10072000064900F0070208684FF6FF03184040EA48
:100730000220034A10430860704700000CED00E0FF
:100740000000FA052DE9F0470F46050061D0434E41
:10075000306800F00700B84209D2306820F0070086
:1007600038433060306800F00700B84251D1286843
:100770003B4C810712D5400703D5606840F4E06028
:1007800060602878000703D5606840F460506060BE
:100790006068A96820F0F000084360602878C0070E
:1007A00028D06868012810D02168022810D0890755
:1007B00000292EDA616821F0030101436160FFF72F
:1007C000F7FE804641F288390DE021688903EFE7A2
:1007D0008901EDE7FFF7ECFEA0EB0801494502D9DE
:1007E0000320BDE8F0876068696800F00C00B0EB9A
:1007F000810FEFD1306800F00700B8420BD93068A4
:1008000020F0070038433060306800F00700B8423D
:1008100001D00120E5E72878400705D56068E96840
:1008200020F4E060084360602878000706D560681F
:10083000296920F4605040EAC100606000F048F887
:100840006168084AC1F30311515CC8400649086059
:1008500006480068FFF7CCFE0020C2E700200240F7
:10086000001002406C1A0008180000201000002040
:100870000F2202600C4A536803F00303436053687D
:1008800003F0F0038360536803F4E063C3605268CD
:100890004FF4E06303EAD20202610448006800F00A
:1008A000070008607047000000100240002002406E
:1008B0000448054900684968044AC1F3C221515CF3
:1008C000C840704718000020001002407C1A000841
:1008D00012A185B00FC98DE80F0014A0144A00685A
:1008E00004905168134801F00C03042B10D0082B1E
:1008F0000ED1C1F38343C9031DF803000AD5516823
:1009000004AAC1F34041515C0A4A5043B0FBF1F0E4
:1009100005B0704708494843FAE7000002030405A0
:10092000060708090A0B0C0D0E0F1010010200003B
:100930000010024000127A0000093D002DE9F84F36
:10094000040070D02078C04DC00749D06868C0F35B
:100950008100012807D06868C0F38100022809D10E
:100960006868C00306D52868800339D56068002808
:10097000E7D035E06068B0F5803F0BD010B1B0F53E
:10098000A02F11D0286820F480302860286820F437
:10099000802002E0286840F480302860606890B1D0
:1009A000FFF706FE06460AE0286840F4802028602B
:1009B000F0E700BFFFF7FCFD801B642873D82868B0
:1009C0008003F7D50CE0FFF7F3FD064605E000BF16
:1009D000FFF7EEFD801B6428F0D828688003F7D469
:1009E00020789A4E80074FF001094FF0000839D562
:1009F000686810F00C0F07D06868C0F38100022807
:100A000009D16868C00306D42868800714D5206916
:100A1000012808D110E02069B0B1C6F80090FFF7B6
:100A2000C7FD074605E00AE1FFF7C2FDC01B02282B
:100A3000C4D828688007F7D52868616920F0F800D5
:100A400040EAC10028600DE0C6F80080FFF7B0FD65
:100A5000074604E0FFF7ACFDC01B022823D8286836
:100A60008007F7D4207800072CD57948A169D9B13F
:100A7000C0F80090FFF79CFD074604E0FFF798FDE3
:100A8000C01B02280FD8686A8007F7D571484FF459
:100A9000FA510068B0FBF1F0009000BF0098411ED1
:100AA0000091FAD20EE080E0C0F80080FFF780FDF0
:100AB000074604E0FFF77CFDC01B022875D8686A72
:100AC0008007F7D42078400760D5E8690027C00088
:100AD00008D4E86940F08050E861E869012700F037
:100AE000805000905C480168C90513D401688346B2
:100AF00041F480710160FFF75BFD824606E000BFB4
:100B0000FFF756FDA0EB0A0064284ED8DBF8000082
:100B1000C005F5D5E06801280AD008B1052813D032
:100B2000286A20F001002862286A20F0040002E010
:100B3000286A40F001002862E06841F2883B98B1E1
:100B4000FFF736FD82460BE0286A40F00400286279
:100B5000EEE700BFFFF72CFDA0EB0A0159455AD87C
:100B6000286A8007F6D50CE0FFF722FD824605E0F3
:100B7000FFF71EFDA0EB0A0159454CD8286A8007F3
:100B8000F6D41FB1E86920F08050E861E06988B3CD
:100B90006968C1F38101022944D00228C6F8608047
:100BA00004D0FFF705FD044638E034E0FFF700FD10
:100BB000074604E0FFF7FCFCC01B02282BD828687E
:100BC0008001F7D4206AB0F5803F05D16868A1683C
:100BD00020F4003008436860D4E9080108436968DC
:100BE00021F4741108436860C6F86090FFF7E0FCD8
:100BF000044606E025E000BFFFF7DAFC001B0228F0
:100C000009D828688001F7D51BE000BFFFF7D0FCAA
:100C1000001B022802D90320BDE8F88F2868800154
:100C2000F4D40EE00128F7D06868226A00F480311D
:100C3000914204D1616A00F47010884201D0012011
:100C4000EAE70020E8E7000000100240000042420E
:100C50008004424218000020007000407047704736
:100C600010B5040003D094F83D0010B107E0012056
:100C700010BD002084F83C00204600F01EF8022041
:100C800084F83D00211D206800F084F9012084F8DB
:100C9000460084F83E0084F83F0084F8400084F861
:100CA000410084F8420084F8430084F8440084F84A
:100CB000450084F83D00002010BD704790F83D10BD
:100CC000012901D001207047022180F83D10016800
:100CD000CA6842F00102CA6000680B49884208D025
:100CE000B0F1804F05D00949884202D008498842B6
:100CF00004D1816801F00701062903D0016841F0A1
:100D00000101016000207047002C014000040040F8
:100D100000080040704770B50446006801694FF054
:100D20000005C943890715D4C168C943890711D48F
:100D3000E91E016101202077206880698007204634
:100D400002D0FFF7E7FF04E000F098F8204600F03B
:100D500096F8257720680169C943490717D4C16807
:100D6000C943490713D46FF00401016102202077C1
:100D70002068806910F4407F204602D0FFF7CAFF48
:100D800004E000F07BF8204600F079F82577206831
:100D90000169C943090716D4C168C943090712D4B8
:100DA0006FF008010161042020772068C069800786
:100DB000204602D0FFF7AEFF04E000F05FF82046C7
:100DC00000F05DF8257720680169C943C90617D48A
:100DD000C168C943C90613D46FF01001016108202E
:100DE00020772068C06910F4407F204602D0FFF7CA
:100DF00091FF04E000F042F8204600F040F825772B
:100E000020680169C943C90708D1C168C943C90736
:100E100004D1891E0161204600F032F82068016982
:100E2000C943090609D4C168C943090605D46FF04E
:100E3000800101612046FFF711FF20680169C94365
:100E4000490609D4C168C943490605D46FF0400179
:100E50000161204600F01EF820680169C943890637
:100E60000BD4C168C943890607D46FF02001016122
:100E70002046BDE87040FFF7F2BE70BD7047704776
:100E800000680349884201D1FFF798BB7047000012
:100E9000002C01407047FEE770B586B0002417486B
:100EA0000094019402940394816941F020018161CE
:100EB000816901F020010491816941F0040181619F
:100EC00080690F4E00F00400049000221C2130467F
:100ED000FFF768FB1C20009001AA0120022582E890
:100EE000310069463046FFF765FAE0208DE83100B1
:100EF00069463046FFF75EFA06B070BD001002404A
:100F000000080140FEE7FEE710B5502080F311888D
:100F1000BFF34F8FBFF36F8F00F0B8FC18B10449D7
:100F20004FF080500860002080F3118810BD000051
:100F300004ED00E010B590B028216846FFF7C2F933
:100F400014210AA8FFF7BEF90220009001200490A6
:100F500010200024059007946846FFF7EFFC08B1C5
:100F600072B6FEE70F20CDE90A040C940D9400211F
:100F70000AA80E94FFF7E6FB002801D072B6FEE740
:100F800010B010BD704700000148FFF7C4BE00005C
:100F9000D0020020F0B50268164B174C174D4FF0E9
:100FA0008047984205D0B84203D0A04201D0A84261
:100FB00003D122F070064A683243984205D0B84205
:100FC00003D0A04201D0A84203D122F44074CA68E1
:100FD00022434C6922F08002224302608A68C26286
:100FE0000A688262984201D1096901630121416165
:100FF000F0BD0000002C014000040040000800404B
:10100000044C10212046FFF7C5FAFA20FFF7C0F97B
:10101000F7E7000000080140044C08212046FFF7D4
:10102000B9FAFA20FFF7B4F9F7E700000008014029
:10103000044C04212046FFF7ADFAFA20FFF7A8F987
:10104000F7E7000000080140FEE70907090E002845
:1010500004DB00F1E02080F80014704700F00F007E
:1010600000F1E02080F8141D7047000096B0FFF7F3
:10107000ADFAFFF75FFFFFF70FFF1C22114968462B
:10108000FFF7EEF80021684600F02BF80E4C0D49F2
:101090001C2220601C3107A8FFF7E2F8002107A8F6
:1010A00000F01FF8074960601C2238310EA8FFF7D6
:1010B000D7F800210EA800F014F8A06000F00CF89A
:1010C000FEE70000181A000800000020014600207A
:1010D000842900D0C81C704710B500F0BFFA00206A
:1010E00010BD7FB50D4604464169B0F9080081B1D5
:1010F000A16971B1FFF7EAFFD4E905128DE8070095
:10110000D4E900102B46226900F095FB039004B04F
:1011100070BDFFF7DBFF03A9CDE90001208A2B4654
:1011200082B2D4E9001000F059FB012801D0002060
:10113000EDE70398EBE700002DE9F041054600F0EC
:101140001BFA2E4C2069401C206120682C4F10B1E6
:10115000E06940B32DE025602069012829D10026EF
:1011600006EB860007EB800000F0ECF9761C072EFA
:10117000F6D323488C3000F0E5F92148A03000F088
:10118000E1F91F48B43000F0DDF91D48C83000F027
:10119000D9F91B48DC3000F0D5F919488C30606073
:1011A0001430A06005E02068E96AC06A884200D86F
:1011B0002560E06A401CE062E96A0120A26988407B
:1011C0001043A06101EB810007EB8000291D00F0B6
:1011D000C7F900F0F1F9E06900280CD02068E96A4D
:1011E000C06A884207D207494FF080500860BFF3B9
:1011F0004F8FBFF36F8FBDE8F08100001C0000200F
:101200001803002004ED00E010B5044690F85100EA
:1012100058B101280CD002280FD0502080F311883B
:10122000BFF34F8FBFF36F8FFEE7206B00F0D8F94D
:101230002046BDE8104000F0D3B910BD10484FF46F
:101240004061420706D0C01D0D4920F00700411A39
:10125000C1F540610B4A00230144C2E9000308398B
:10126000103A21F0070111604B600B600B1AC0E9C6
:10127000001393604FF000405360D060704700004F
:101280000804002068000020144E154CA6F1C80781
:101290004FF08058DFF84C9012E000BF00F06CF97E
:1012A000F068C568281D00F02FF92069401E2061F4
:1012B000E068401EE06000F07FF92846FFF7A4FFD9
:1012C000E0680028EAD138680128F9D9C9F8008017
:1012D000BFF34F8FBFF36F8FF2E70000E0030020F2
:1012E0001C00002004ED00E02DE9F0479A46DDE9FE
:1012F000098481466FF00303206B03EB82021044E4
:10130000089D20F00706700707D0502080F3118851
:10131000BFF34F8FBFF36F8FFEE723180A5C83F88C
:1013200034200A5C12B1401C1028F6D3002784F840
:101330004370072D00D30625E562C4E91157201D2F
:1013400000F00BF904F1180000F007F92461C5F171
:1013500007006462A061E76484F850705246494611
:10136000304600F0BFF82060B8F1000F01D0C8F897
:101370000040BDE8F087000030B5114900E011469B
:101380000A688242FBD34B685C18844203D14068F0
:1013900018444860084643681C18944209D1084C18
:1013A000103C2468A24209D052681A4442600A687C
:1013B00012680260814200D0086030BD0460F9E725
:1013C0006800002006484168096829B14168C96879
:1013D000C9684968016370474FF0FF31FAE70000C0
:1013E0001C00002008484068401C4FF0500080F36B
:1013F000118804D0BFF34F8FBFF36F8FFEE7BFF3A9
:101400004F8FBFF36F8FFEE7700000202DE9F04192
:101410000546002700F058F9314E306808B9FFF74B
:101420000DFFF06805424BD1C5B3083568070ED0F3
:1014300005F00700C0F108000544680707D05020F8
:1014400080F31188BFF34F8FBFF36F8FFEE72DB38B
:101450007068854234D82248103001460C6801E09B
:1014600020460C466168A94202D221680029F7D1C2
:1014700031688C4224D007682168016060680837B1
:10148000411B10290FD96019420708D0502080F362
:101490001188BFF34F8FBFF36F8FFEE710E04160FD
:1014A0006560FFF769FF61687068401A7060B26834
:1014B000904200D2B060F06801430020C4E900010E
:1014C00000F048FA780707D0502080F31188BFF366
:1014D0004F8FBFF36F8FFEE73846BDE8F081000005
:1014E0005800002010B5031F4FF080741C601B1FB4
:1014F00021F001011960191F024B0B6014394038AB
:101500000A6010BDE5130008D0E9013201699A6054
:10151000D0E901235A604A68824201D182684A6058
:10152000002202610868401E0860086870470000D9
:10153000034B036003F15400086080201060704783
:101540007C00002000F108014FF0FF32C0E90112D9
:10155000C160016100210160704700210161704795
:1015600042684A6093688B60936859609160086133
:101570000168491C01607047502080F31188BFF357
:101580004F8FBFF36F8F0A494868401C486001289D
:101590000CD10848006810F0FF0F07D0502080F3EE
:1015A0001188BFF34F8FBFF36F8FFEE770470000C6
:1015B0007000002004ED00E00849486828B1401E92
:1015C000486001D180F311887047502080F3118862
:1015D000BFF34F8FBFF36F8FFEE700007000002056
:1015E00070B5002827D0144DA0F108046168E868A0
:1015F000014207D1502080F31188BFF34F8FBFF312
:101600006F8FFEE722683AB1502080F31188BFF354
:101610004F8FBFF36F8FFEE78143616000F054F896
:1016200060686968084468602046FFF7A5FEBDE869
:10163000704000F08FB970BD580000204FF0E020DE
:1016400000210161816104494217096802EB5101DF
:1016500041610721016170471800002010B586B074
:101660000024039405AA04A903A80494FFF760FFCB
:10167000DDE903010094CDE9011000230EA110481B
:10168000059A00F0D8F80F490028486311D050207F
:1016900080F31188BFF34F8FBFF36F8F4FF0FF3090
:1016A00008630120C8614C6106B0BDE8104000F03D
:1016B00041B806B010BD000049444C450000000090
:1016C000891200081C0000200248816B491C8163BC
:1016D000704700001C0000201448816B11B10121EB
:1016E00041627047002141628169B1FA81F1C1F123
:1016F0001F0101EB81020E4951F822306BB101EB61
:10170000820101F108034A6852684A609A4201D195
:1017100052684A60D16801607047502080F3118898
:10172000BFF34F8FBFF36F8FFEE700001C00002058
:10173000180300201CB5264908780190FF20087086
:1017400008788DF800009DF800009DF8002000F05A
:10175000F000904207D0502080F31188BFF34F8FE4
:10176000BFF36F8FFEE79DF800001A4B00F05000AA
:1017700018700720986005E09DF8002052008DF851
:101780000020401E9DF800201206F5D49860032822
:1017900007D0502080F31188BFF34F8FBFF36F8FB6
:1017A000FEE74FF440709860019808700A4801689D
:1017B00041F470010160016841F070410160FFF780
:1017C0003DFF00205860FEF7F1FC00201CBD00002A
:1017D00000E400E07000002020ED00E02DE9FF5F54
:1017E0008346DDE90E87994616468A469000FFF744
:1017F0000DFE05001CD05420FFF708FE040014D095
:101800000020256384F85100CDE90240CDE900872E
:101810004B46324651465846FFF766FD2046FFF7D5
:101820008BFC012004B0BDE8F09F2846FFF7D8FEEE
:101830004FF0FF30F6E7F0B585B0DDE90B640A9DA7
:10184000A6B1DCB1542700972663022684F85160C4
:10185000002604AFCDE90246CDE90057FFF744FD6D
:101860002046FFF769FC049805B0F0BD502080F3D6
:101870001188BFF34F8FBFF36F8FFEE7502080F3C7
:101880001188BFF34F8FBFF36F8FFEE72DE9F04153
:101890002E4C0027A06B40B1206A401C2062606A79
:1018A00000B101273846BDE8F0816669761C6661A3
:1018B00013D16068006838B1502080F31188BFF3FD
:1018C0004F8FBFF36F8FFEE76068A1686160A06013
:1018D000A06A401CA062FFF775FD206BDFF87080E6
:1018E000864209D36068006880B16068C068C568D6
:1018F000686886420DD220632068C06A00EB8001D0
:1019000058F821000128CAD90127C8E74FF0FF3055
:10191000F1E7281DFFF7F8FDA86A18B105F11800D6
:10192000FFF7F2FDE86A0121A26981401143A1613C
:1019300000EB800108EB8100291DFFF711FEE86A2A
:101940002168C96A8842CDD30127CBE71C0000205B
:10195000180300202DE9F0472C4D00242746A86BE2
:1019600038B1FFF709FEA86B401EA863A86B40B111
:1019700046E0502080F31188BFF34F8FBFF36F8F85
:10198000FEE72969224E0120D1B3A6F1B4098046B1
:101990003068E8B1F068C46804F11800FFF7B4FDDE
:1019A000201DFFF7B1FDE06AAA6908FA00F11143B2
:1019B000A96100EB800109EB8100211DFFF7D0FD3B
:1019C000E06A2968C96A8842E2D3C5F82480DFE763
:1019D0000CB1FFF7F7FC2C6A44B14646FFF756FFFF
:1019E00000B16E62641EF9D100202862686A38B1C5
:1019F0000849012738070860BFF34F8FBFF36F8F87
:101A0000FFF7DAFD3846BDE8F08700001C00002033
:101A1000CC03002004ED00E0841A00080110000847
:101A20000000000000000000800000000000000036
:101A3000000000008C1A00081910000800000000C7
:101A40000000000080000000000000000000000016
:101A5000941A000831100008000000000000000087
:101A600080000000000000000000000000000000F6
:101A7000000000000102030406070809000000003E
:101A8000010203045461736B303100005461736BC5
:101A9000303200005461736B30330000BC1A000810
:101AA000000000207C00000028010008381B00080E
:101AB0007C000020EC15000044010008000000003C
:101AC0000000000000000000010000001000000005
:101AD000000000000024F4000000000000000000EE
:101AE00000000000000000000000000000000000F6
:101AF00000000000000000000000000000000000E6
:101B000000000000000000000000000000000000D5
:101B100000000000000000000000000000000000C5
:101B200000000000000000000000000000000000B5
:081B3000AAAAAAAA0000000005
:04000005080000ED02
:00000001FF
