:020000040800F2
:10000000E806002091010008671E0008D3190008C7
:10001000651E00088305000843200008000000005A
:10002000000000000000000000000000BB1F0008EE
:10003000ED07000800000000691E0008BD1F000851
:10004000AB010008AB010008AB010008AB010008E0
:10005000AB010008AB010008AB010008AB010008D0
:10006000AB010008AB010008AB010008AB010008C0
:10007000AB010008AB010008AB010008AB010008B0
:10008000AB010008AB010008AB010008AB010008A0
:10009000AB010008AB010008AB010008AB01000890
:1000A000AB010008AB010008AB010008AB01000880
:1000B000AB010008AB010008AB010008AB01000870
:1000C000AB010008AB010008AB010008AB01000860
:1000D000AB010008AB010008AB010008AB01000850
:1000E000AB010008AB010008AB01000800F002F80A
:1000F00000F03FF80AA090E8000C82448344AAF183
:100100000107DA4501D100F034F8AFF2090EBAE880
:100110000F0013F0010F18BFFB1A43F0010318473B
:10012000A0210000C0210000103A24BF78C878C187
:10013000FAD8520724BF30C830C144BF04680C60ED
:10014000704700000023002400250026103A28BF35
:1001500078C1FBD8520728BF30C148BF0B60704739
:10016000642900F07180002070471FB51FBD10B5D5
:1001700010BD00F0CCF91146FFF7F7FF02F00CF8C4
:1001800000F0EAF903B4FFF7F2FF03BC00F0F2F964
:100190000948804709480047FEE7FEE7FEE7FEE71B
:1001A000FEE7FEE7FEE7FEE7FEE7FEE70448054957
:1001B000054A064B7047000041200008ED0000088A
:1001C000E8000020E8060020E8020020E802002005
:1001D0000FB41CB5074B06AA7B44694600900598EE
:1001E00000F07DF90020694600F08CF91CBC5DF838
:1001F00014FB00002903000070B5044685690068FF
:10020000C10601D5302600E02026C00707D070BD0A
:10021000D4E9012130469047206A401C20626D1EBF
:10022000F6D570BD70B5044685690078C00707D162
:1002300070BDD4E9012120209047206A401C206233
:100240006D1EF6D570BD00002DE9F0410646002474
:1002500010687529314616A510D0AFF3008000282C
:1002600002DA404213A507E031688A0701D512A5DA
:1002700002E0490704D511A5012401E0AFF3008095
:1002800000210A2206F1240709E0B0FBF2FCB0FBD2
:10029000F2F302FB1C00303078541846491C002849
:1002A000F3D123462A463046BDE8F04100F0B9B804
:1002B000000000002D0000002B00000020000000C6
:1002C0002DE9F0474FF0000A89460446C0F820A007
:1002D0002046E1688847002876D0252806D0D4E952
:1002E00001219047206A401C2062F1E7E168204626
:1002F00000258847C4F81CA006460027C4F818A0AB
:100300002A2E09D0304601F0ADFE38B304EB870841
:10031000303EC8F8186019E059F8041B204604EB79
:1003200087029161E1688847012F064618D1E0698C
:10033000002820DA25F020051DE0D8F8180000EB91
:10034000800006EB40003038C8F818002046E1680D
:100350008847064601F086FE0028EED1012F0AD01C
:100360002E2E08D12046E16888477F1C0646022FC2
:1003700045F02005C4DBA069002803DA404245F0BF
:100380000105A061E80701D025F01005B6B1A6F17E
:100390004100192802D8203645F400654A46314606
:1003A000204625604D46FFF7DBFE58B1012806D0F8
:1003B000ED1D25F0070000F1080989E704E005F1CB
:1003C000040985E730468AE7206ABDE8F0874FF0E8
:1003D000000200B5134694469646203922BFA0E895
:1003E0000C50A0E80C50B1F12001BFF4F7AF0907A1
:1003F00028BFA0E80C5048BF0CC05DF804EB890092
:1004000028BF40F8042B08BF704748BF20F8022BD4
:1004100011F0804F18BF00F8012B704770477047EC
:1004200070472DE9F0470D4699469246044600F183
:1004300024080168880604D5E06921F010012160D4
:1004400000E00120A84201DD471B00E00027A16970
:100450007A1902EB0900081AA0612078C00602D4BC
:100460002046FFF7C9FE002608E0D4E901211AF86A
:1004700006009047206A401C761C20624E45F4DB43
:100480002078C0060AD52046FFF7B6FE06E0D4E97C
:10049000012130209047206A401C2062381EA7F1BD
:1004A0000107F4DC07E0D4E9012118F805009047C2
:1004B000206A401C2062281EA5F10105F3DC2046BD
:1004C000FFF7B0FE2078000602D50220BDE8F087D5
:1004D0000120FBE701694A1C02610878704700B5FA
:1004E0008FB0CDE901310021059105497944CDE96D
:1004F000031011466846FFF7E3FE0FB000BD000091
:10050000E5FFFFFF0A6802F8010B0A6070477546B5
:1005100000F02CF8AE4605006946534620F007006F
:10052000854618B020B5FFF741FEBDE820404FF0EA
:1005300000064FF000074FF000084FF0000B21F0CD
:100540000701AC46ACE8C009ACE8C009ACE8C0099A
:10055000ACE8C0098D46704710B50446AFF3008083
:100560002046BDE81040FFF70DBE00000048704770
:100570008800002001491820ABBEFEE726000200DB
:100580007047FEE700F00F01000900EB800001EB6F
:100590004000C0B270470A21B0FBF1F201FB120229
:1005A000B0FBF1F002EB0010C0B2704710B50020B4
:1005B00000F02CF8C00910BD10B5042000F026F89A
:1005C000BDE81040FFF7DEBF10B5032000F01EF8B5
:1005D000BDE81040FFF7D6BF10B5022000F016F8B6
:1005E000BDE8104000F03F00FFF7CCBF10B5012080
:1005F00000F00CF8BDE81040FFF7C4BF10B50520AF
:1006000000F004F8BDE81040FFF7BCBF31B582B080
:10061000094D4FF47A740094012302AAD02128686E
:1006200000F0DAFB0094012301AAD021286800F031
:10063000B1FA9DF804003EBD0000002010B5002076
:10064000FFF7E4FFBDE8104000F07F00FFF79ABF1E
:100650003EB50446FFF7B0FF8DF80000FFF7CEFF70
:100660008DF8010000F02BF8ADF80200FFF7ACFFA9
:100670008DF80400FFF7B0FF8DF80500FFF7B6FF17
:100680008DF80600FFF7DAFF8DF8070000F00EF88E
:100690008DF8080000F010F88DF80900009820602F
:1006A00001986060BDF8080020813EBD10B50820AB
:1006B000FFF7ACFF40B210BD0920FFF7A7BF10B590
:1006C0001020FFF7A3FF642100FB01F40620FFF7D1
:1006D0009DFFFFF757FF204410BD0000024908604E
:1006E000002000F003B800000000002010B508B1A1
:1006F000802400E000240020FFF788FF00F07F0145
:100700002143BDE81040002000F030B810B5FFF7DD
:1007100042FF0146BDE81040042000F027B810B5A4
:10072000FFF739FF0146BDE81040032000F01EB876
:1007300010B500F03F00FFF72EFF0146BDE8104066
:10074000022000F013B810B5FFF725FF0146BDE801
:100750001040012000F00AB810B5FFF71CFF014659
:10076000BDE81040052000F001B800001CB50223D0
:100770008DF804004FF47A70009004488DF805104D
:1007800001AAD021006800F027FB1CBD000000205A
:1007900010B50446FFF70AFF2043FFF7FCFE0146B1
:1007A000BDE810400020FFF7E1BF10B50C46C1B214
:1007B0000820FFF7DBFF2146BDE810400920FFF7C6
:1007C000D5BF70B504466425B0FBF5F0C1B210206A
:1007D000FFF7CCFFB4FBF5F005FB1040FFF7DBFEA5
:1007E000BDE8704001460620FFF7C0BF704700001B
:1007F00070B5044600F004F90546601C02D00448B8
:100800000078044400F0FCF8401BA042FAD370BD0D
:10081000040000202DE9F84FDFF8B891002409F119
:10082000040A0AF1040B23460F270BF1040EC9E05A
:100830000125A5402A40AA427DD1674ED1F804C0C7
:10084000ACEB0608B44532D014DCBCF1030F3AD04F
:1008500009DCBCF1000F2AD0BCF1010F1CD0BCF1A7
:10086000020F31D11DE0BCF1110F17D0BCF1120FF6
:100870002AD119E0B8F5881F19D006DCB8F5803FF9
:1008800015D0B8F5801F1FD111E0B8F5001F0ED0AC
:10089000B8F5041F18D10AE0CB6815E0CB681B1D22
:1008A00012E0CB6808330FE0CB680C330CE08B68A8
:1008B0002BB1012B4FF0080303D0456104E0042362
:1008C00002E0056100E00023FF2A01D8064601E0AE
:1008D00000F104064FEA840501D9A5F12005D6F8F8
:1008E000008007FA05FC28EA0C0803FA05F548EA37
:1008F0000508C6F800804D68ED0062D5374DAE6939
:1009000046F00106AE61AD6924F0030605F001056D
:100910000095334D06EB050CDCF80850A607360FA2
:1009200007FA06F825EA0805DFF8B880404503D144
:100930004FF0000817E044E0DFF8AC80404502D1FA
:100940004FF001080FE0DFF8A480404502D14FF0DE
:10095000020808E0DFF89880404502D14FF0030814
:1009600001E04FF0040808FA06F848EA0508CCF858
:1009700008804D68D9F80060ED034D4601D5164357
:1009800000E096432E604D68DAF80060AD035546EE
:1009900001D5164300E096432E604D68DBF80060F9
:1009A000ED025D4601D5164300E096432E604D688A
:1009B000DEF80060AD02754601D5164300E09643AF
:1009C0002E60641C0D682A46E5407FF431AFBDE817
:1009D000F88F0000000401400000111000100240D8
:1009E0000000014000080140000C014000100140DF
:1009F000001401400AB1016170470904FBE70000DF
:100A000001488068704700000400002070B50400B1
:100A100025D094F83D00002520B984F83C502046AC
:100A200000F070FA242084F83D002068016821F06D
:100A3000010101602068016841F400410160206803
:100A4000016821F40041016000F08AFC4D4A6168B0
:100A5000914201D84C4900E04C49884201D2012022
:100A600070BD4B492368B0FBF1F15E6826F03F068C
:100A70000E435E606368934206D94FF49673594300
:100A80004FF47A73B1FBF3F12368491C1E6A26F018
:100A90003F06314319626168914210D84900401EF7
:100AA000B0FBF1F2521CC2F30B02042A01D2042063
:100AB00022E0B0FBF1F0401CC0F30B001CE0A26888
:100AC000F2B301EBC10303EB0116431EB3FBF6F3D4
:100AD0005B1C43F480431B0549D092B301EBC10278
:100AE00002EB0111401EB0FBF1F0401CC0F30B0003
:100AF00040F4804040F400402168CA694CF6FF731E
:100B00009A431043C861D4E9071001432068026882
:100B100022F0C00211430160D4E9030101432068BF
:100B2000826848F2FF339A4311438160D4E905019A
:100B300008432168CA6822F0FF021043C86001E040
:100B40000EE016E02068016841F0010101602564B3
:100B5000202084F83D00256384F83E50002070BDBD
:100B600001EB4106431EB3FBF6F35B1CB3E7012028
:100B7000C2E701EB4101401EB0FBF1F0401CC0F3A5
:100B80000B00B7E7A086010080841E0000093D002D
:100B900040420F002DE9F84F0025DDF828909846D7
:100BA00017468A4604460095FFF72AFF064694F842
:100BB0003D0020287AD1192301228349204600963E
:100BC00001F00AF80028F5D194F83C0001286DD016
:100BD000012084F83C0020680168C90703D101683E
:100BE00041F0010101602068016821F400610160A9
:100BF000222084F83D00102084F83E0025646762BE
:100C0000A4F82A80608D20857048E06233464A4609
:100C10005146204600F0F6FE00287DD1208DDFF8F9
:100C2000B081202768B1012814D00228206801680B
:100C30001ED041F4806101602068416980690090A4
:100C4000B5E02068416981690091016841F4007153
:100C50000160ACE02068016821F48061016072B637
:100C60002068416981690091016841F400710AE0DE
:100C700041F40061016072B62068416981690091A8
:100C8000016821F48061016062B690E0032868D8B1
:100C900001280CD002284B464FF000024146204666
:100CA00000960FD000F098FFB0BB10E08AE032460B
:100CB0004946204601F00FF870BB20680069616A60
:100CC00008706BE000F088FF30BB72B634E020683B
:100CD000016821F48061016072B620680069616A70
:100CE0000870606A401C6062208D401E2085608D07
:100CF000401E6085374846F2A8110068B0FBF1F04D
:100D0000C0EBC00000EB80000090401E009008D0B7
:100D100020684069C04300E029E040070CD50098F6
:100D2000F3E744F8305F6773A573206940F0200053
:100D3000206162B625731AE02068016841F40071F1
:100D4000016020680069616A0870606A401C606226
:100D5000218D491E2185618D491E618562B62168FC
:100D60001AE032464946204600F0B5FF10B1012096
:100D7000BDE8F88F20680069616A0870606A401CED
:100D80006062218D491E2185618D491E6185216822
:100D90004A69D24352070AD409690170606A401C4B
:100DA0006062208D401E2085608D401E6085208DF4
:100DB00000287FF46BAF84F83D7084F83E5084F8CF
:100DC0003C50D5E70220D3E7020010000000FFFFEF
:100DD00004000100100000202DE9F84F1F46904646
:100DE0008A460446DDF82890FFF70AFE054694F887
:100DF0003D0020287FD1192301224049204600953B
:100E000000F0EAFE002876D194F83C00012872D068
:100E1000012084F83C0020680168C90703D10168FB
:100E200041F0010101602068016821F40061016066
:100E3000212084F83D00102084F83E00002626641E
:100E4000C4F824806785608D20852D48E0622B469C
:100E50004A465146204600F04BFE90B92068416951
:100E60008069009036E02A464946204600F066FF39
:100E700050B1206C042804D12068016841F400714D
:100E800001600120BDE8F88F606A21680078086180
:100E9000606A401C6062618D491E6185218D491E1A
:100EA00089B2218522685369DB435B070BD451B1BA
:100EB00000781061606A401C6062608D401E608531
:100EC000208D401E20852A464946204600F05EFEC1
:100ED0000028CED1208D0028C5D154F83D0B0168E3
:100EE00041F400710160202004F81E09E67766775E
:100EF0000020C7E7FFE70220C4E70000020010005F
:100F00000000FFFF10B586B0002100910191029111
:100F1000039100680F4988421AD10F4CA06940F034
:100F20000800A061A069694600F008000490C02094
:100F3000009012200190032003900848FFF76AFCFC
:100F4000E06940F40010E061E06900F400100490F2
:100F500006B010BD0054004000100240000C0140DB
:100F600002488168027811448160704704000020C3
:100F7000074810B5016841F010010160032000F03E
:100F800067F80F2000F006F800F024F8002010BDEC
:100F90000020024070B50D4D04464FF47A71287858
:100FA000B1FBF0F00A490968B1FBF0F000F0FDFC7C
:100FB00048B9102C07D200222146501E00F028F814
:100FC00000206C6070BD012070BD00000400002096
:100FD000100000200C4808B5816941F001018161D1
:100FE000816901F001010091C16941F08051C16145
:100FF000C06900F0805000900448416821F0E06131
:1010000041F00071416008BD001002400000014045
:10101000F0B40E4B1B680C46C3F30223C3F1070563
:10102000042D00D90425191D072901D2002300E051
:10103000DB1E012606FA05F1491E214099409E401B
:10104000761E16403143F0BC00F0FCBF0CED00E012
:10105000064900F0070208684FF6FF03184040EA0F
:101060000220034A10430860704700000CED00E0C6
:101070000000FA05014901200862704700000E4295
:1010800010B529A401461DCC86B08DE81D002AA00C
:101090002A4C006804900020012923D002293AD06C
:1010A00010291DD161682268D20119D5C1F383428C
:1010B000C9031DF8020009D5616804AAC1F34041C3
:1010C000515C1F4AB2FBF1F1484301E01D4948431E
:1010D0006168490204D440005FF00301B0FBF1F005
:1010E00006B010BD226AC2F30121012903D1920783
:1010F00001D5C803F4E7022905D1626A920702D537
:1011000049F64040ECE70329EAD121688903E7D595
:101110004FF22440E4E700F033F96168C1F3813114
:10112000491C4900DAE70000020304050607080924
:101130000A0B0C0D0E0F10100102000000100240EF
:1011400000127A0000093D002DE9F84305460078B9
:10115000354CC00754D0E0690026C00008D4E069CF
:1011600040F08050E061E069012600F0805000907E
:101170002E480168C90512D40168804641F4807187
:101180000160FFF73DFC074605E000BFFFF738FCB4
:10119000C01B642823D8D8F80000C005F6D5206A03
:1011A00010F4407021D0A98801F4407181421CD014
:1011B000206A1F49012220F440700A6000220A6060
:1011C0002062C00711D0FFF71BFC074641F28838A8
:1011D00008E000BFFFF714FCC11B414502D9032002
:1011E000BDE8F883206A8007F4D5206A696820F496
:1011F0004070084320621EB1E06920F08050E06139
:101200002878800705D56068A96820F44040084325
:1012100060602878C00605D56068E96820F4800021
:10122000084360600020DBE70010024000700040CF
:10123000400442422DE9F0470F46050061D0434E7D
:10124000306800F00700B84209D2306820F007008B
:1012500038433060306800F00700B84251D1286848
:101260003B4C810712D5400703D5606840F4E0602D
:1012700060602878000703D5606840F460506060C3
:101280006068A96820F0F000084360602878C00713
:1012900028D06868012810D02168022810D089075A
:1012A00000292EDA616821F0030101436160FFF734
:1012B000A7FB804641F288390DE021688903EFE7FA
:1012C0008901EDE7FFF79CFBA0EB0801494502D936
:1012D0000320BDE8F0876068696800F00C00B0EB9F
:1012E000810FEFD1306800F00700B8420BD93068A9
:1012F00020F0070038433060306800F00700B84243
:1013000001D00120E5E72878400705D56068E96845
:1013100020F4E060084360602878000706D5606824
:10132000296920F4605040EAC100606000F038F89C
:101330006168084AC1F30311515CC840064908605E
:1013400006480068FFF726FE0020C2E700200240A2
:1013500000100240A8220008100000200800002011
:101360000448054900684968044AC1F30221515CF8
:10137000C84070471000002000100240B82200084A
:101380000448054900684968044AC1F3C221515C18
:10139000C84070471000002000100240B82200082A
:1013A00012A185B00FC98DE80F0014A0144A00687F
:1013B00004905168134801F00C03042B10D0082B43
:1013C0000ED1C1F38343C9031DF803000AD5516848
:1013D00004AAC1F34041515C0A4A5043B0FBF1F00A
:1013E00005B0704708494843FAE7000002030405C6
:1013F000060708090A0B0C0D0E0F10100102000061
:101400000010024000127A0000093D002DE9F84F5B
:10141000040070D02078C04DC00749D06868C0F380
:101420008100012807D06868C0F38100022809D133
:101430006868C00306D52868800339D5606800282D
:10144000E7D035E06068B0F5803F0BD010B1B0F563
:10145000A02F11D0286820F480302860286820F45C
:10146000802002E0286840F480302860606890B1F5
:10147000FFF7C6FA06460AE0286840F48020286094
:10148000F0E700BFFFF7BCFA801B642873D8286818
:101490008003F7D50CE0FFF7B3FA064605E000BF7E
:1014A000FFF7AEFA801B6428F0D828688003F7D4D1
:1014B00020789A4E80074FF001094FF0000839D587
:1014C000686810F00C0F07D06868C0F3810002282C
:1014D00009D16868C00306D42868800714D520693C
:1014E000012808D110E02069B0B1C6F80090FFF7DC
:1014F00087FA074605E00AE1FFF782FAC01B0228D7
:10150000C4D828688007F7D52868616920F0F800FA
:1015100040EAC10028600DE0C6F80080FFF770FACD
:10152000074604E0FFF76CFAC01B022823D828689E
:101530008007F7D4207800072CD57948A169D9B164
:10154000C0F80090FFF75CFA074604E0FFF758FA8E
:10155000C01B02280FD8686A8007F7D571484FF47E
:10156000FA510068B0FBF1F0009000BF0098411EF6
:101570000091FAD20EE080E0C0F80080FFF740FA58
:10158000074604E0FFF73CFAC01B022875D8686ADA
:101590008007F7D42078400760D5E8690027C000AD
:1015A00008D4E86940F08050E861E869012700F05C
:1015B000805000905C480168C90513D401688346D7
:1015C00041F480710160FFF71BFA824606E000BF1C
:1015D000FFF716FAA0EB0A0064284ED8DBF80000EB
:1015E000C005F5D5E06801280AD008B1052813D058
:1015F000286A20F001002862286A20F0040002E036
:10160000286A40F001002862E06841F2883B98B106
:10161000FFF7F6F982460BE0286A40F004002862E2
:10162000EEE700BFFFF7ECF9A0EB0A0159455AD8E5
:10163000286A8007F6D50CE0FFF7E2F9824605E05C
:10164000FFF7DEF9A0EB0A0159454CD8286A80075C
:10165000F6D41FB1E86920F08050E861E06988B3F2
:101660006968C1F38101022944D00228C6F860806C
:1016700004D0FFF7C5F9044638E034E0FFF7C0F9BD
:10168000074604E0FFF7BCF9C01B02282BD82868E6
:101690008001F7D4206AB0F5803F05D16868A16861
:1016A00020F4003008436860D4E908010843696801
:1016B00021F4741108436860C6F86090FFF7A0F940
:1016C000044606E025E000BFFFF79AF9001B022858
:1016D00009D828688001F7D51BE000BFFFF790F913
:1016E000001B022802D90320BDE8F88F286880017A
:1016F000F4D40EE00128F7D06868226A00F4803143
:10170000914204D1616A00F47010884201D0012036
:10171000EAE70020E8E70000001002400000424233
:1017200080044242100000200070004070B50400A8
:1017300003D0607C002610B105E0012070BD267446
:10174000204600F043F802206074204600F010F9B3
:10175000042578BB204600F091FB58BB2068416807
:1017600021F007014160A06820B11748016821F00D
:10177000010101601448001F0168A26821F4607132
:10178000114301606068411C04D10120FFF778FC1F
:1017900080B1401E21688A6822F00F0242EA10429E
:1017A0008A602168CA6860F30F02CA60204600F0B0
:1017B0007FFB08B16574C0E7E67301206073A07316
:1017C0006074002070BD0000306C004008B50068F7
:1017D000084988420DD1FFF74DFC0748C16941F027
:1017E0000061C161C069054900F0006000900120FE
:1017F000086008BD00280040001002403C0442423E
:101800002DE9F0410D4604003BD0C5B3207C0128F2
:101810003AD04FF0010884F8108002206074E87814
:1018200072B300F022FBE073687800F01EFB607377
:10183000A87800F01AFBA073C2B2617BE07B00F0D5
:1018400069FB20732870204600F054FB4FF461615F
:10185000B0FBF1F1002518292DD91822B1FBF2F1C6
:10186000A1EB011101EB4101C1EB011100EBC1162C
:101870003146204600F08DFB0427C8B90BE000E09C
:1018800004E00120BDE8F0810220FBE7E073687806
:101890006073A878CFE7204600F025FB411C0AD0F2
:1018A000B04208D206490144204600F05EFB10B168
:1018B00067742574E5E784F8118025740020E1E75A
:1018C000805101002DE9F0410D46040024D01DB3E4
:1018D000207C012823D04FF0010884F810800220DA
:1018E00060742878EAB100F0C0FA4FF4616100FB3F
:1018F00001F6687800F0B9FAC0EB001006EB80063C
:10190000A87800F0B2FA35182946204600F041FBCD
:101910000026042710BB0FE00120BDE8F081022063
:10192000FBE74FF4616148436978C1EB011100EBBB
:101930008100A9784518E7E72068416821F0050192
:101940004160204600F0CFFA411C0AD0A84208D2DC
:1019500006490144204600F008FB10B16774267464
:10196000DAE784F8118026740020D6E78051010060
:1019700070B504000AD02068416821F00801416078
:10198000FFF73EF805464FF47A7608E0012070BD77
:10199000FFF736F8401BB04201D9032070BD206824
:1019A00040680007F4D5002070BD10B5401EB0F1AE
:1019B000807F01D3012010BD4FF0E02460610F2132
:1019C000601700F03FFB0020A0610720206100208D
:1019D00010BDFEE701684A69D24352050FD46FF487
:1019E00080624A61002140F8301F202242738173D7
:1019F000026942F004020261017301207047002075
:101A0000704700002DE9F84F0446C06A1E46934611
:101A10000D4621680A6842F480620A60082807D0EF
:101A2000012805D010F5803F02D0206B112804D189
:101A30002068016841F4807101604FF001195B4634
:101A4000002249462046009600F0C6F84FF4007880
:101A500040B120680068C00501D5C4F8408003206B
:101A6000BDE8F88F2069DFF884A0B0F5804F0FD073
:101A70000620216800EAD51747F0F00008613346D8
:101A80005A460AF10601204600F0DAF858BB03E096
:101A9000E8B240F001001CE02168E8B2086133467A
:101AA0005A465146204600F0CBF8E0B9206841691B
:101AB00081690091016841F4807101605B460022F8
:101AC00049462046009600F087F80028C1D147F02B
:101AD000F1002168086133465A465146204600F01D
:101AE000AFF80028BCD00120BAE7000002000100D6
:101AF000F8B50446C06A1E460D461746082807D0AA
:101B0000012805D010F5803F02D0206B122804D1A7
:101B10002068016841F480710160134600224FF093
:101B200001112046009600F057F840B12068006887
:101B3000C00502D54FF4007020640320F8BD206971
:101B4000B0F5804F0ED00620216800EAD51040F095
:101B5000F000086133463A460B49204600F070F821
:101B600078B902E005F0FE0000E0E8B22168086103
:101B7000054933463A46891F204600F061F800289F
:101B8000DCD00120F8BD00000800010070B5164649
:101B90000D4604460DE02046FFF71CFF08B101206A
:101BA00070BD681C05D0FEF72BFF801BA84207D82C
:101BB00035B120684069C0434007ECD4002070BDB7
:101BC000002044F8300F20216173A073216941F097
:101BD000200121612073E2E72DE9F0471E4690467F
:101BE0000D460446C1F30747DDF8209008E0701C5D
:101BF00006D0FEF705FFA0EB0900B0420FD876B182
:101C00002068012F18D0806925EA00000004000C2C
:101C100014D000214145EAD00020BDE8F087002023
:101C200044F8300F20216173A073216941F0200135
:101C3000216120730120F0E74069E5E70121E9E730
:101C40002DE9F0479A4691460E46044600254FF08E
:101C50002008C1F3074725E020684069C0434005DC
:101C600014D42068016841F40071016021686FF4A8
:101C700080604861256384F83D8084F83E50206C84
:101C800040F00400206484F83C501FE0B9F1FF3FAD
:101C900008D0FEF7B5FEA0EB0A0149450CD8B9F112
:101CA000000F09D02068012F13D0806926EA0000B8
:101CB0000004000C0BD0CFE744F8305F84F80D80AF
:101CC000A573206940F02000206125730120BDE844
:101CD000F0874069EAE72DE9F041002590460E467D
:101CE0000446202717E04069C043C0060CD454F8CE
:101CF000301B6FF01000486144F810596777A577E2
:101D0000206A2062257717E0FEF77AFEA0EB080034
:101D1000B04208D83EB120684169C9434906E2D4BF
:101D20000020BDE8F08144F8305F6773A573206937
:101D300040F02000206125730120F2E770B51646BF
:101D40000D4604460DE02046FFF744FE08B1012091
:101D500070BD681C05D0FEF753FE801BA84207D853
:101D600035B120684069C0430006ECD4002070BD46
:101D7000002044F8300F20216173A073216941F0E5
:101D8000200121612073E2E730B585B0002000908A
:101D90000190029003901648816941F02001816111
:101DA000816901F020010491816941F004018161A0
:101DB000816901F004010491816941F008018161A8
:101DC00080690C4D00F008004FF40064049000227C
:101DD00021462846FEF70EFE012002210094CDE99F
:101DE0000101039169462846FEF714FD05B030BD98
:101DF00000100240000801401CB50024184801945E
:101E0000164900940160611E41604FF48071816049
:101E1000FFF78CFC08B172B6FEE78DF804408DF830
:101E200005408DF80640012201A90D48FFF74AFD43
:101E300008B172B6FEE701208DF800008DF80100B0
:101E40008DF8020002468DF8034069460448FFF70A
:101E5000D7FC002801D072B6FEE71CBD0028004068
:101E600068000020FEE7FEE77047010901EB8101F1
:101E700000F00F0000EB4100C0B2704770B504469F
:101E8000FEF7BEFD05464FF47A7606E0FEF7B8FD94
:101E9000401BB04201D9032070BD20684068800615
:101EA000F4D52068416841F010014160002070BD08
:101EB00070B504460068416821F010014160FEF7EA
:101EC0009FFD05464FF47A7607E000BFFEF798FDC8
:101ED000401BB04201D9032070BD206840688006D5
:101EE000F4D5002070BD0168086A496A89B241EAE8
:101EF00000407047006881698AB2C1698BB281690C
:101F000089B28A4203D0C06961F31F40704743EA37
:101F100002407047F0B56424C1EBC1030927A50056
:101F2000072603EB01130329B3FBF7F100F5FA6071
:101F3000114401440AD2401EB0FBF4F201EB9001BF
:101F4000B0FBF5F0891A0844001D08E0B0FBF4F27C
:101F500001EB9001B0FBF5F0891A0844801CB0FB3E
:101F6000F6F106FB1100C0B2F0BD70B50D46064695
:101F70000024FFF783FF48B93168280C08623168F4
:101F8000A8B248623046FFF793FF00B10124204613
:101F900070BD70B50D4606460024FFF76FFF48B9C7
:101FA0003168280C88613168A8B2C8613046FFF7F3
:101FB0007FFF00B10124204670BD7047FEF7D0BFFF
:101FC00070B594B028216846FEF701FA14210AA8DA
:101FD000FEF7FDF900250F950920012410950090CA
:101FE000119512954FF4803004940694CDE90105C3
:101FF0000226CDE907604FF4E01009906846FFF72C
:1020000005FA08B172B6FEE70F20CDE90A064FF4D3
:102010008060CDE90C5002210AA80E95FFF70AF95D
:1020200008B172B6FEE74FF40070CDE90F400FA87B
:10203000FFF78AF8002801D072B6FEE714B070BD31
:102040007047FEE70907090E002804DB00F1E020D5
:1020500080F80014704700F00F0000F1E02080F8D5
:10206000141D704730380A2801D201207047002023
:10207000704710B53220FEF7BBFB302000F042F86D
:102080000520FEF7B5FB302000F03CF80120FEF7FC
:10209000AFFB302000F036F80A20FEF7A9FB202025
:1020A00000F030F80A20FEF7A3FB282000F02AF801
:1020B0000120FEF79DFB082000F024F80120FEF728
:1020C00097FB012000F01EF80120FEF791FB012094
:1020D000FEF78EFB062000F015F80120FEF788FBC6
:1020E000BDE810400C2000F00DB810B1012805D15A
:1020F00002E041F0800101E041F0C001C8B200F00F
:1021000001B800001CB500F0F00141F00C028DF8A0
:10211000042041F0080100018DF8051040F00C0189
:102120008DF8061040F008008DF80700642000903C
:10213000042301AA4E210248FEF74EFE1CBD0000FA
:10214000140000201CB500F0F00141F00D028DF8E4
:10215000042041F0090100018DF8051040F00D0147
:102160008DF8061040F009008DF8070064200090FB
:10217000042301AA4E210248FEF72EFE1CBD0000DA
:102180001400002010B5044602E0641CFFF7DAFFDB
:1021900020780028F9D110BD94B0FEF7E9FEFFF7D2
:1021A0000FFFFFF7F1FD344832494FF480420160E0
:1021B0003249416000218160C0E9031241618161BF
:1021C000C1610162FEF722FC08B172B6FEE7FFF7BB
:1021D00013FE2948FEF782FA00210720FEF7E5FAF0
:1021E0000720FEF793FA0C20FEF7B6FA40F2E670ED
:1021F000FEF7E7FA0420FEF792FA0D20FEF798FAB0
:102200001E20FEF7A0FA0020FEF7C2FAFFF731FF0A
:10221000194D4FF47A7605F1680411A8FEF718FA03
:102220001198A8661298E866BDF84C00A5F87000F1
:1022300000210846FFF759FFE0790090A379627901
:102240000FA101A8FDF7C4FF01A8FFF79BFF002124
:102250000120FFF74AFF60880090637822780DA183
:1022600009A8FDF7B5FF09A8FFF78CFF3046FEF778
:10227000BFFAD2E70054004014000020A0860100FD
:1022800054696D653A202532643A2532643A253224
:1022900064000000446174653A202532642F2532C1
:1022A000642F2534640000000000000000000000DE
:1022B00001020304060708090000000001020304EC
:1022C000E02200080000002014000000280100089F
:1022D000F422000814000020D40600004401000885
:1022E00000000000010000001000000000000000DD
:0422F0000024F400D2
:04000005080000ED02
:00000001FF
