:020000040800F2
:100000007016002021020008770F0008070F000873
:10001000750F0008170400083111000800000000E7
:10002000000000000000000000000000890100083E
:100030001904000800000000CD010008790F000835
:100040003B0200083B0200083B0200083B0200089C
:100050003B0200083B0200083B0200083B0200088C
:100060003B0200083B0200083B0200083B0200087C
:100070003B0200083B0200083B0200083B0200086C
:100080003B0200083B0200083B0200083B0200085C
:100090003B0200083B0200083B0200083B0200084C
:1000A0003B020008F90F00083B0200083B02000871
:1000B0003B0200083B0200083B0200083B0200082C
:1000C0003B0200083B0200083B0200083B0200081C
:1000D0003B0200083B0200083B0200083B0200080C
:1000E0003B0200083B0200083B02000800F002F857
:1000F00000F03AF80AA090E8000C82448344AAF188
:100100000107DA4501D100F02FF8AFF2090EBAE885
:100110000F0013F0010F18BFFB1A43F0010318473B
:100120000426000024260000103A24BF78C878C1B5
:10013000FAD8520724BF30C830C144BF04680C60ED
:10014000704700000023002400250026103A28BF35
:1001500078C1FBD8520728BF30C148BF0B60704739
:100160001FB51FBD10B510BD00F01BF91146FFF7FC
:10017000F7FF00F0F5FF00F039F903B4FFF7F2FFE5
:1001800003BC00F041F90000224B19680868B0E890
:10019000F00F80F30988BFF36F8F4FF0000080F3FA
:1001A00011884EF00D0E70470000000006480068F0
:1001B000006880F3088862B661B6BFF34F8FBFF363
:1001C0006F8F00DF00BF00BF08ED00E0EFF3098094
:1001D000BFF36F8F0F4B1A6820E9F00F106008B55E
:1001E0004FF0500080F31188BFF34F8FBFF36F8F34
:1001F00001F010FD4FF0000080F31188BDE80840C9
:1002000019680868B0E8F00F80F30988BFF36F8FB2
:10021000704700BF20000020EFF30580704700000A
:100220000948804709480047FEE7FEE7FEE7FEE78A
:10023000FEE7FEE7FEE7FEE7FEE7FEE704480549C6
:10024000054A064B70470000F50F0008ED00000856
:100250007010002070160020701200207012002014
:10026000032A40F2308010F0030C00F0158011F8E2
:10027000013BBCF1020F624498BF11F801CB00F8BA
:10028000013B38BF11F8013BA2F1040298BF00F80E
:1002900001CB38BF00F8013B11F0030300F02580CB
:1002A000083AC0F0088051F8043B083A51F804CBF2
:1002B000A0E80810F5E7121D5CBF51F8043B40F8B8
:1002C000043BAFF30080D20724BF11F8013B11F8C3
:1002D00001CB48BF11F8012B24BF00F8013B00F807
:1002E00001CB48BF00F8012B704710B5203AC0F091
:1002F0000B80B1E81850203AA0E81850B1E8185027
:10030000A0E81850BFF4F5AF5FEA027C24BFB1E863
:100310001850A0E8185044BF18C918C0BDE81040D4
:100320005FEA827C24BF51F8043B40F8043B08BFDD
:100330007047D20728BF31F8023B48BF11F8012BA4
:1003400028BF20F8023B48BF00F8012B70474FF050
:10035000000200B5134694469646203922BFA0E815
:100360000C50A0E80C50B1F12001BFF4F7AF090721
:1003700028BFA0E80C5048BF0CC05DF804EB890012
:1003800028BF40F8042B08BF704748BF20F8022B55
:1003900011F0804F18BF00F8012B7047704770476D
:1003A0007047754600F02CF8AE4605006946534686
:1003B00020F00700854618B020B5FFF73FFFBDE8E5
:1003C00020404FF000064FF000074FF000084FF0BC
:1003D000000B21F00701AC46ACE8C009ACE8C0094D
:1003E000ACE8C009ACE8C0098D46704710B50446BA
:1003F000AFF300802046BDE81040FFF7BEBE00000E
:10040000004870470C10002001491820ABBEFEE7E1
:10041000260002007047FEE7704700002DE9F84F04
:10042000DFF8B891002409F1040A0AF1040B23460D
:100430000F270BF1040EC9E00125A5402A40AA426E
:100440007DD1674ED1F804C0ACEB0608B44532D07C
:1004500014DCBCF1030F3AD009DCBCF1000F2AD048
:10046000BCF1010F1CD0BCF1020F31D11DE0BCF179
:10047000110F17D0BCF1120F2AD119E0B8F5881F5F
:1004800019D006DCB8F5803F15D0B8F5801F1FD114
:1004900011E0B8F5001F0ED0B8F5041F18D10AE01E
:1004A000CB6815E0CB681B1D12E0CB6808330FE06A
:1004B000CB680C330CE08B682BB1012B4FF0080399
:1004C00003D0456104E0042302E0056100E000235D
:1004D000FF2A01D8064601E000F104064FEA840530
:1004E00001D9A5F12005D6F8008007FA05FC28EA15
:1004F0000C0803FA05F548EA0508C6F800804D68BF
:10050000ED0062D5374DAE6946F00106AE61AD69CA
:1005100024F0030605F001050095334D06EB050CAC
:10052000DCF80850A607360F07FA06F825EA080592
:10053000DFF8B880404503D14FF0000817E044E0F1
:10054000DFF8AC80404502D14FF001080FE0DFF842
:10055000A480404502D14FF0020808E0DFF89880FF
:10056000404502D14FF0030801E04FF0040808FABB
:1005700006F848EA0508CCF808804D68D9F800600C
:10058000ED034D4601D5164300E096432E604D68BD
:10059000DAF80060AD03554601D5164300E09643F6
:1005A0002E604D68DBF80060ED025D4601D5164314
:1005B00000E096432E604D68DEF80060AD0275469F
:1005C00001D5164300E096432E60641C0D682A4650
:1005D000E5407FF431AFBDE8F88F00000004014032
:1005E000000011100010024000000140000801400E
:1005F000000C0140001001400014014080680840D8
:1006000000D001207047C26821EA02030A4043EA91
:100610000241016170470AB1016170470904FBE7BB
:10062000014880687047000010000020024881687F
:10063000027811448160704710000020074810B50F
:10064000016841F010010160032000F0A1F80F20C3
:1006500000F006F800F04AF8002010BD002002402B
:1006600030B505461C4887B0816941F4006181615D
:10067000806906A900F40060009001A800F030F93C
:1006800000F04EF91549164AB0FBF1F11548491E24
:100690000260416040F2E7320021C0E9032181603D
:1006A000816100F015FB040012D10E4800F03EFB02
:1006B00004000DD1192000F03DF8102D07D20022C2
:1006C0002946192000F044F80748056000E001249D
:1006D00007B0204630BD00000010024040420F002D
:1006E000002C0140D4020020140000200F4808B55F
:1006F000816941F001018161816901F0010100918D
:10070000C16941F08051C161C069002200F0805090
:1007100000900F21901E00F01BF80548416821F061
:10072000E06141F00071416008BD0000001002402E
:1007300000000140002809DB00F01F020121914068
:100740004009800000F1E020C0F80011704700006F
:10075000F0B40E4B1B680C46C3F30223C3F107052C
:10076000042D00D90425191D072901D2002300E01A
:10077000DB1E012606FA05F1491E214099409E40E4
:10078000761E16403143F0BC00F0D3BC0CED00E007
:10079000064900F0070208684FF6FF03184040EAD8
:1007A0000220034A10430860704700000CED00E08F
:1007B0000000FA052DE9F0470F46050061D0434ED1
:1007C000306800F00700B84209D2306820F0070016
:1007D00038433060306800F00700B84251D12868D3
:1007E0003B4C810712D5400703D5606840F4E060B8
:1007F00060602878000703D5606840F4605060604E
:100800006068A96820F0F000084360602878C0079D
:1008100028D06868012810D02168022810D08907E4
:1008200000292EDA616821F0030101436160FFF7BE
:10083000F7FE804641F288390DE021688903EFE731
:100840008901EDE7FFF7ECFEA0EB0801494502D96D
:100850000320BDE8F0876068696800F00C00B0EB29
:10086000810FEFD1306800F00700B8420BD9306833
:1008700020F0070038433060306800F00700B842CD
:1008800001D00120E5E72878400705D56068E968D0
:1008900020F4E060084360602878000706D56068AF
:1008A000296920F4605040EAC100606000F048F817
:1008B0006168084AC1F30311515CC84006490860E9
:1008C00006480068FFF7CCFE0020C2E70020024087
:1008D00000100240F42600081C0000201400002034
:1008E0000F2202600C4A536803F00303436053680D
:1008F00003F0F0038360536803F4E063C36052685D
:100900004FF4E06303EAD20202610448006800F099
:1009100007000860704700000010024000200240FD
:100920000448054900684968044AC1F3C221515C82
:10093000C84070471C000020001002400427000837
:1009400012A185B00FC98DE80F0014A0144A0068E9
:1009500004905168134801F00C03042B10D0082BAD
:100960000ED1C1F38343C9031DF803000AD55168B2
:1009700004AAC1F34041515C0A4A5043B0FBF1F074
:1009800005B0704708494843FAE700000203040530
:10099000060708090A0B0C0D0E0F101001020000CB
:1009A0000010024000127A0000093D002DE9F84FC6
:1009B000040070D02078C04DC00749D06868C0F3EB
:1009C0008100012807D06868C0F38100022809D19E
:1009D0006868C00306D52868800339D56068002898
:1009E000E7D035E06068B0F5803F0BD010B1B0F5CE
:1009F000A02F11D0286820F480302860286820F4C7
:100A0000802002E0286840F480302860606890B15F
:100A1000FFF706FE06460AE0286840F480202860BA
:100A2000F0E700BFFFF7FCFD801B642873D828683F
:100A30008003F7D50CE0FFF7F3FD064605E000BFA5
:100A4000FFF7EEFD801B6428F0D828688003F7D4F8
:100A500020789A4E80074FF001094FF0000839D5F1
:100A6000686810F00C0F07D06868C0F38100022896
:100A700009D16868C00306D42868800714D52069A6
:100A8000012808D110E02069B0B1C6F80090FFF746
:100A9000C7FD074605E00AE1FFF7C2FDC01B0228BB
:100AA000C4D828688007F7D52868616920F0F80065
:100AB00040EAC10028600DE0C6F80080FFF7B0FDF5
:100AC000074604E0FFF7ACFDC01B022823D82868C6
:100AD0008007F7D4207800072CD57948A169D9B1CF
:100AE000C0F80090FFF79CFD074604E0FFF798FD73
:100AF000C01B02280FD8686A8007F7D571484FF4E9
:100B0000FA510068B0FBF1F0009000BF0098411E60
:100B10000091FAD20EE080E0C0F80080FFF780FD7F
:100B2000074604E0FFF77CFDC01B022875D8686A01
:100B30008007F7D42078400760D5E8690027C00017
:100B400008D4E86940F08050E861E869012700F0C6
:100B5000805000905C480168C90513D40168834641
:100B600041F480710160FFF75BFD824606E000BF43
:100B7000FFF756FDA0EB0A0064284ED8DBF8000012
:100B8000C005F5D5E06801280AD008B1052813D0C2
:100B9000286A20F001002862286A20F0040002E0A0
:100BA000286A40F001002862E06841F2883B98B171
:100BB000FFF736FD82460BE0286A40F00400286209
:100BC000EEE700BFFFF72CFDA0EB0A0159455AD80C
:100BD000286A8007F6D50CE0FFF722FD824605E083
:100BE000FFF71EFDA0EB0A0159454CD8286A800783
:100BF000F6D41FB1E86920F08050E861E06988B35D
:100C00006968C1F38101022944D00228C6F86080D6
:100C100004D0FFF705FD044638E034E0FFF700FD9F
:100C2000074604E0FFF7FCFCC01B02282BD828680D
:100C30008001F7D4206AB0F5803F05D16868A168CB
:100C400020F4003008436860D4E90801084369686B
:100C500021F4741108436860C6F86090FFF7E0FC67
:100C6000044606E025E000BFFFF7DAFC001B02287F
:100C700009D828688001F7D51BE000BFFFF7D0FC3A
:100C8000001B022802D90320BDE8F88F28688001E4
:100C9000F4D40EE00128F7D06868226A00F48031AD
:100CA000914204D1616A00F47010884201D00120A1
:100CB000EAE70020E8E7000000100240000042429E
:100CC000800442421C0000200070004070477047C2
:100CD00010B5040003D094F83D0010B107E00120E6
:100CE00010BD002084F83C00204600F01EF80220D1
:100CF00084F83D00211D206800F084F9012084F86B
:100D0000460084F83E0084F83F0084F8400084F8F0
:100D1000410084F8420084F8430084F8440084F8D9
:100D2000450084F83D00002010BD704790F83D104C
:100D3000012901D001207047022180F83D1001688F
:100D4000CA6842F00102CA6000680B49884208D0B4
:100D5000B0F1804F05D00949884202D00849884245
:100D600004D1816801F00701062903D0016841F030
:100D70000101016000207047002C01400004004088
:100D800000080040704770B50446006801694FF0E4
:100D90000005C943890715D4C168C943890711D41F
:100DA000E91E0161012020772068806980072046C4
:100DB00002D0FFF7E7FF04E000F098F8204600F0CB
:100DC00096F8257720680169C943490717D4C16897
:100DD000C943490713D46FF0040101610220207751
:100DE0002068806910F4407F204602D0FFF7CAFFD8
:100DF00004E000F07BF8204600F079F825772068C1
:100E00000169C943090716D4C168C943090712D447
:100E10006FF008010161042020772068C069800715
:100E2000204602D0FFF7AEFF04E000F05FF8204656
:100E300000F05DF8257720680169C943C90617D419
:100E4000C168C943C90613D46FF0100101610820BD
:100E500020772068C06910F4407F204602D0FFF759
:100E600091FF04E000F042F8204600F040F82577BA
:100E700020680169C943C90708D1C168C943C907C6
:100E800004D1891E0161204600F032F82068016912
:100E9000C943090609D4C168C943090605D46FF0DE
:100EA000800101612046FFF711FF20680169C943F5
:100EB000490609D4C168C943490605D46FF0400109
:100EC0000161204600F01EF820680169C9438906C7
:100ED0000BD4C168C943890607D46FF020010161B2
:100EE0002046BDE87040FFF7F2BE70BD7047704706
:100EF00000680349884201D1FFF798BB70470000A2
:100F0000002C01407047FEE770B586B000241748FA
:100F10000094019402940394816941F0200181615D
:100F2000816901F020010491816941F0040181612E
:100F300080690F4E00F00400049000221821304612
:100F4000FFF769FB1820009001AA0120022582E822
:100F5000310069463046FFF761FAE0208DE8310044
:100F600069463046FFF75AFA06B070BD00100240DD
:100F700000080140FEE7FEE710B5502080F311881D
:100F8000BFF34F8FBFF36F8F01F0F4F918B104492D
:100F90004FF080500860002080F3118810BD0000E1
:100FA00004ED00E010B590B028216846FFF7CFF9B6
:100FB00014210AA8FFF7CBF9022000900120049029
:100FC00010200024059007946846FFF7EFFC08B155
:100FD00072B6FEE70F20CDE90A040C940D940021AF
:100FE0000AA80E94FFF7E6FB002801D072B6FEE7D0
:100FF00010B010BD704700000148FFF7C4BE0000EC
:10100000D4020020F0B50268164B174C174D4FF074
:101010008047984205D0B84203D0A04201D0A842F0
:1010200003D122F070064A683243984205D0B84294
:1010300003D0A04201D0A84203D122F44074CA6870
:1010400022434C6922F08002224302608A68C26215
:101050000A688262984201D10969016301214161F4
:10106000F0BD0000002C01400004004000080040DA
:10107000084C094E4FF0FF354FF47A772946E06867
:1010800000F0DCF808213046FFF7BDFA384600F0E2
:10109000A1F8F3E70000002000080140134C2021D4
:1010A0002046FFF7ABFA01280AD101221021204681
:1010B000FFF7B1FA20212046FFF7A0FA0128F9D066
:1010C00040212046FFF79AFA01280AD10022102178
:1010D0002046FFF7A0FA40212046FFF78FFA0128AB
:1010E000F9D0642000F076F8D9E70000000801404C
:1010F0000D4D0E4E002480212846FFF77FFA01286F
:1011000001D044B10AE080212846FFF777FA012890
:10111000F9D03CB10024F06800F068F8642000F0D9
:1011200059F8E8E70124F9E7000801400000002031
:10113000FEE70907090E002804DB00F1E02080F833
:101140000014704700F00F0000F1E02080F8141D3B
:101150007047EFF30580002800D0012070470000A1
:1011600096B0FFF76BFAFFF71DFFFFF7CDFE0021EA
:10117000022000F0D1FD124C1C221249E0606846AA
:10118000FFF7B3F80021684600F08AF80D492060A7
:101190001C221C3107A8FFF7A8F8002107A800F0BF
:1011A0007FF8084960601C2238310EA8FFF79DF8CF
:1011B00000210EA800F074F8A06000F012F8FEE71D
:1011C00000000020A026000801460020842900D04D
:1011D000C81C704710B500B9012000F03DFC00208C
:1011E00010BD10B500F0D8FC002010BD38B50024AB
:1011F00005460094FFF7ADFF90B16946284600F020
:10120000C1FE012801D0FF2038BD009888B10A49ED
:101210004FF080500860BFF34F8FBFF36F8F08E02F
:1012200000231A461946284600F0FCFD012800D08C
:10123000FF24204638BD000004ED00E038B505006D
:101240004FF0000000900FD00024481C0ED001B1D8
:101250000C46FFF77EFFB8B16A460021284600F031
:10126000DFFE012816D104E0802038BD4FF0FF34A6
:10127000EFE7009880B109494FF080500860BFF354
:101280004F8FBFF36F8F07E02146284600F016FF0F
:10129000012801D0FF2038BD002038BD04ED00E05A
:1012A0007FB50D4604464169B0F9080081B1A169D6
:1012B00071B1FFF789FFD4E905128DE80700D4E981
:1012C00000102B46226901F01CF8039004B070BD99
:1012D000FFF77AFF03A9CDE90001208A2B4682B2ED
:1012E000D4E9001000F0E0FF012801D00020EDE774
:1012F0000398EBE72DE9F041184C0F460546666967
:101300002068001D00F0BAFA38B9206890F82C1057
:1013100001208840A1698143A161681C07D137B1D0
:101320002168BDE8F0410E48091D00F0EBBA2068C5
:101330003544B5424560216805D2A068BDE8F0415A
:10134000091D00F0C7BA6068091D00F0C3FA206BE0
:10135000854200D22563BDE8F08100002000002016
:10136000F80300202DE9F041054600F0D7FA2E4C95
:101370002069401C206120682C4F10B1E06940B307
:101380002DE025602069012829D1002606EB860082
:1013900007EB800000F090FA761C072EF6D3234866
:1013A0008C3000F089FA2148A03000F085FA1F48FF
:1013B000B43000F081FA1D48C83000F07DFA1B48B7
:1013C000DC3000F079FA19488C3060601430A0608D
:1013D00005E02068E96AC06A884200D82560E06AB2
:1013E000401CE062E96A0120A26988401043A061C4
:1013F00001EB810007EB8000291D00F083FA00F06B
:10140000ADFAE06900280CD02068E96AC06A884219
:1014100007D207494FF080500860BFF34F8FBFF3EA
:101420006F8FBDE8F0810000200000201C03002029
:1014300004ED00E030B4026C0B46002A0BD0C1680A
:101440001144C1604468A14201D30168C16030BC4D
:101450001846FEF705BF30BC70472DE9F041856B9B
:10146000174604460026026C82B1C7B1E068FEF759
:10147000F7FEE168206C091AE1602268914202D20D
:101480006168081AE060022F16D017E02068A8B93A
:10149000606800F0D3FF0646002060600EE0A068A0
:1014A000FEF7DEFE216CA0680844A06061688842F7
:1014B00004D32068A06001E005B16D1E6D1CA5631A
:1014C0003046BDE8F08110B5044690F8510058B19F
:1014D00001280CD002280FD0502080F31188BFF3D0
:1014E0004F8FBFF36F8FFEE7206B00F04BFA204663
:1014F000BDE8104000F046BA10BD000010484FF49F
:101500004061420706D0C01D0D4920F00700411A76
:10151000C1F540610B4A00230144C2E900030839C8
:10152000103A21F0070111604B600B600B1AC0E903
:10153000001393604FF000405360D060704700008C
:101540000C0400206C000020144E154CA6F1C807B6
:101550004FF08058DFF84C9012E000BF00F0DEF949
:10156000F068C568281D00F089F92069401E2061D7
:10157000E068401EE06000F0F1F92846FFF7A3FFA5
:10158000E0680028EAD138680128F9D9C9F8008054
:10159000BFF34F8FBFF36F8FF2E70000E40300202B
:1015A0002000002004ED00E00346009829B102600D
:1015B000C0E90F31012100F0F1BB0060F8E72DE92F
:1015C000F0479A46DDE9098481466FF00303206BFA
:1015D00003EB82021044089D20F00706700707D035
:1015E000502080F31188BFF34F8FBFF36F8FFEE75A
:1015F00023180A5C83F834200A5C12B1401C1028BE
:10160000F6D3002784F84370072D00D30625E56242
:10161000C4E91157201D00F05AF904F1180000F038
:1016200056F92461C5F107006462A061E76484F89B
:10163000507052464946304600F00EF92060B8F12D
:10164000000F01D0C8F80040BDE8F08730B511495F
:1016500000E011460A688242FBD34B685C18844262
:1016600003D1406818444860084643681C189442F7
:1016700009D1084C103C2468A24209D052681A448F
:1016800042600A6812680260814200D0086030BD82
:101690000460F9E76C00002010B5044600F03EF944
:1016A000A06B28B15FF0000400F058F9204610BD8F
:1016B0000124F9E706484168096829B14168C96809
:1016C000C9684968016370474FF0FF31FAE70000CD
:1016D0002000002008484068401C4FF0500080F374
:1016E000118804D0BFF34F8FBFF36F8FFEE7BFF3B6
:1016F0004F8FBFF36F8FFEE7740000202DE9F0419C
:10170000044600F00BF994F9455004F1240609E071
:10171000606A48B1304600F027FF08B100F0CAF90E
:101720006D1E6DB2002DF3DC4FF0FF3684F845607E
:1017300000F014F900F0F2F894F9445004F11007A5
:1017400009E0206948B1384600F00EFF08B100F00A
:10175000B1F96D1E6DB2002DF3DC84F84460BDE874
:10176000F04100F0FBB800002DE9F04105460027EC
:1017700000F048FA314E306808B9FFF7BFFEF06854
:1017800005424BD1C5B3083568070ED005F00700F8
:10179000C0F108000544680707D0502080F3118885
:1017A000BFF34F8FBFF36F8FFEE72DB37068854295
:1017B00034D82248103001460C6801E020460C461F
:1017C0006168A94202D221680029F7D131688C42B0
:1017D00024D007682168016060680837411B102920
:1017E0000FD96019420708D0502080F31188BFF349
:1017F0004F8FBFF36F8FFEE710E041606560FFF72A
:1018000025FF61687068401A7060B268904200D22B
:10181000B060F06801430020C4E9000100F0DEFE82
:10182000780707D0502080F31188BFF34F8FBFF3A4
:101830006F8FFEE73846BDE8F08100005C000020B5
:101840000449086818B10868826C521C82640868F0
:10185000704700002000002010B5031F4FF0807477
:101860001C601B1F21F001011960191F024B0B6046
:10187000143940380A6010BDD5160008D0E901328D
:1018800001699A60D0E901235A604A68824201D115
:1018900082684A60002202610868401E0860086889
:1018A00070470000034B036003F154000860802080
:1018B000106070478000002000F108014FF0FF32F7
:1018C000C0E90112C160016100210160704700217F
:1018D0000161704730B50B685A1C02D000F1080254
:1018E00002E0026904E02246546825689D42FAD964
:1018F00053684B6099608A60516008610168491CB7
:10190000016030BD42684A6093688B60936859609B
:10191000916008610168491C01607047502080F3A4
:101920001188BFF34F8FBFF36F8F0A494868401C7F
:10193000486001280CD10848006810F0FF0F07D05C
:10194000502080F31188BFF34F8FBFF36F8FFEE7F6
:10195000704700007400002004ED00E0084948686A
:1019600028B1401E486001D180F311887047502093
:1019700080F31188BFF34F8FBFF36F8FFEE7000036
:101980007400002070B5002827D0144DA0F1080481
:101990006168E868014207D1502080F31188BFF3E5
:1019A0004F8FBFF36F8FFEE722683AB1502080F36C
:1019B0001188BFF34F8FBFF36F8FFEE781436160E4
:1019C00000F020F960686968084468602046FFF705
:1019D0003DFEBDE8704000F001BE70BD5C0000201F
:1019E0004FF0E02000210161816105494FF47A72D6
:1019F0000968B1FBF2F1491E41610721016170479D
:101A00001C00002010B5FEF707FC114910280ED36A
:101A100000F1E02090F8F0030A78904207D25020BD
:101A200080F31188BFF34F8FBFF36F8FFEE7094834
:101A30000068896800F4E060884207D9502080F38C
:101A40001188BFF34F8FBFF36F8FFEE710BD00000B
:101A5000740000200CED00E010B5020014D00F4817
:101A6000806B38B1502080F31188BFF34F8FBFF3E4
:101A70006F8FFEE700F0C6F800211046FFF73AFC32
:101A800000F0ACFD002807D105494FF080500860F8
:101A9000BFF34F8FBFF36F8F10BD000020000020F9
:101AA00004ED00E002498A6A0260496941607047BA
:101AB00020000020014901204862704720000020DA
:101AC00010B50C4650B1094909681831FFF702FFFB
:101AD0002046BDE810400121FFF70CBC502080F3E8
:101AE0001188BFF34F8FBFF36F8FFEE720000020F8
:101AF00070B504004BD0A26CA2B1606C884200D3D8
:101B00000146E06A884242D0012A40D1204D2A682D
:101B100094420FD1502080F31188BFF34F8FBFF351
:101B20006F8FFEE7502080F31188BFF34F8FBFF314
:101B30006F8FFEE7E162A269002A02DBC1F10701B3
:101B4000A161144E00EB8000616906EB80008142C8
:101B50001DD1201DFFF792FE012150B9E06A00EB74
:101B6000800256F8222022B9AA6901FA00F08243C5
:101B7000AA61E06AAA6981401143A96100EB800073
:101B800006EB8000211DBDE87040FFF7BBBE70BDB5
:101B9000200000201C03002010B586B00024039410
:101BA00005AA04A903A80494FFF77CFEDDE903015C
:101BB0000094CDE9011000230EA11048059A00F011
:101BC000A0FB0F490028486311D0502080F31188F2
:101BD000BFF34F8FBFF36F8F4FF0FF3008630120CB
:101BE000C8614C6106B0BDE8104000F041B806B0D5
:101BF00010BD000049444C45000000004915000894
:101C0000200000200248816B491C8163704700005E
:101C1000200000201448816B11B1012141627047FE
:101C2000002141628169B1FA81F1C1F11F0101EB2B
:101C300081020E4951F822306BB101EB820101F1B2
:101C400008034A6852684A609A4201D152684A6061
:101C5000D16801607047502080F31188BFF34F8F27
:101C6000BFF36F8FFEE70000200000201C03002060
:101C70001CB5264908780190FF20087008788DF877
:101C800000009DF800009DF8002000F0F000904258
:101C900007D0502080F31188BFF34F8FBFF36F8FB1
:101CA000FEE79DF800001A4B00F050001870072066
:101CB000986005E09DF8002052008DF80020401E3D
:101CC0009DF800201206F5D49860032807D0502014
:101CD00080F31188BFF34F8FBFF36F8FFEE74FF490
:101CE00040709860019808700A48016841F47001DA
:101CF0000160016841F070410160FFF771FE002052
:101D00005860FEF753FA00201CBD000000E400E01C
:101D10007400002020ED00E010B50C4648B184426C
:101D20000FD9502080F31188BFF34F8FBFF36F8F0F
:101D3000FEE7502080F31188BFF34F8FBFF36F8F02
:101D4000FEE70222002100F004F8002800D084639E
:101D500010BDF8B517460E46050014D0DEB105FBE0
:101D600006F04830FFF700FD04000AD0002084F898
:101D7000460004F148023B46314628460094FFF7EE
:101D800013FC2046F8BD502080F31188BFF34F8F1D
:101D9000BFF36F8FFEE70020E3E7000070B50D464C
:101DA000040025D0FFF7BAFDD4E90F20216802FB1B
:101DB000001161600021A1632168A1600A46D4E995
:101DC0000F01401E00FB0121E16021464FF0FF3072
:101DD00001F8440F487004F110008DB1FFF76CFD5D
:101DE00004F12400FFF768FDFFF7B8FD012070BD86
:101DF000502080F31188BFF34F8FBFF36F8FFEE742
:101E000021690029F0D000F0AFFB0028ECD0044994
:101E10004FF080500860BFF34F8FBFF36F8FE3E741
:101E200004ED00E02DE9FF4782B01D468A464FF0E1
:101E30000008040003D0BAF1000F08D011E05020D0
:101E400080F31188BFF34F8FBFF36F8FFEE7206CD5
:101E500038B1502080F31188BFF34F8FBFF36F8FDD
:101E6000FEE7022D0AD1E06B012807D0502080F355
:101E70001188BFF34F8FBFF36F8FFEE700F06CFA4E
:101E80003F4F4FF000094FF0805648B9049838B1E1
:101E9000502080F31188BFF34F8FBFF36F8FFEE7A1
:101EA000FFF73CFDA06BE16B884207D3022D05D004
:101EB0000498D0B1B8F1000F1AD01EE02A4651465E
:101EC0002046FFF7CAFA616A19B104F1240000F054
:101ED0004BFB20B13E60BFF34F8FBFF36F8FFFF717
:101EE0003DFD012006B0BDE8F087FFF737FD22E099
:101EF0006846FFF7D7FD4FF00108FFF72FFDFFF70A
:101F000081FEFFF70BFD94F94400401C01D184F8D9
:101F1000449094F94500401C01D184F84590FFF7A6
:101F20001DFD04A9684600F085F930B12046FFF791
:101F3000E5FB00F053FB0020D4E7FFF7EFFCA06BBC
:101F4000E16B884213D1FFF709FD04F110000499F9
:101F5000FFF7B6FD2046FFF7D1FB00F03FFB00285E
:101F60009ED13E60BFF34F8FBFF36F8F98E7FFF7AF
:101F7000F5FC2046FFF7C2FB00F030FB90E70000C5
:101F800004ED00E070B50E46040009D0206C78B175
:101F9000502080F31188BFF34F8FBFF36F8FFEE7A0
:101FA000502080F31188BFF34F8FBFF36F8FFEE790
:101FB000206848B9606838B1502080F31188BFF3B9
:101FC0004F8FBFF36F8FFEE7FFF71CFD5020EFF33D
:101FD000118580F31188BFF34F8FBFF36F8FA16B13
:101FE000E06B884218D994F94500491CA163411C53
:101FF00004D0401C84F8450001200EE0606A0028EF
:10200000FAD004F1240000F0AFFA0028F4D0002E3A
:10201000F2D001203060EFE7002085F3118870BD19
:102020002DE9F04790468946040003D0B9F1000F2E
:1020300008D011E0502080F31188BFF34F8FBFF319
:102040006F8FFEE7206C38B1502080F31188BFF30A
:102050004F8FBFF36F8FFEE7FFF7D4FC5020EFF3F5
:10206000118680F31188BFF34F8FBFF36F8FA76B7B
:10207000F7B194F9445049462046FFF7DBF97F1E3B
:10208000A763681C04D06D1C84F84450012010E044
:1020900020690028FAD004F1100000F065FA002849
:1020A000F4D0B8F1000FF1D00121C8F80010EDE72D
:1020B000002086F31188BDE8F08700002DE9F34386
:1020C000002683B00400354609D0206C78B150203A
:1020D00080F31188BFF34F8FBFF36F8FFEE750205F
:1020E00080F31188BFF34F8FBFF36F8FFEE700F0CF
:1020F00033F9DFF83C814FF000094FF0805748B9C1
:10210000049838B1502080F31188BFF34F8FBFF38C
:102110006F8FFEE7FFF702FCA06BC8B1401EA06303
:10212000206810B9FFF78CFB6060206950B104F1A2
:10213000100000F019FA28B1C8F80070BFF34F8FF3
:10214000BFF36F8FFFF70AFC012005B0BDE8F083F5
:10215000049808B166B10FE03DB1502080F31188BA
:10216000BFF34F8FBFF36F8FFEE7FFF7F7FB5DE025
:102170006846FFF797FC0126FFF7F0FBFFF742FDEB
:10218000FFF7CCFB94F94400401C01D184F8449043
:1021900094F94500401C01D184F84590FFF7DEFB1F
:1021A00004A9684600F046F80028204612D0FFF740
:1021B000A5FA00F013FA2046FFF76EFA0028A9D01E
:1021C0009DB3FFF7ABFB606A50B3206B0068C0F1B2
:1021D000070126E0FFF760FAE0B1206838B9FFF7A1
:1021E0009DFB606800F076F90546FFF7B7FB04F148
:1021F00024000499FFF764FC2046FFF77FFA00F003
:10220000EDF9002886D1C8F80070BFF34F8FBFF3F7
:102210006F8F7FE72046FFF771FA00F0DFF979E76B
:1022200000216068FFF764FC9FE7FFE700208CE770
:1022300004ED00E02DE9F0410C46050011D0C4B1D9
:10224000FFF76CFB174B5A696E682068911B471C9F
:1022500017D02F689B6A9F4219D0964217D8012445
:1022600010E0502080F31188BFF34F8FBFF36F8FC2
:10227000FEE7502080F31188BFF34F8FBFF36F8FBD
:10228000FEE70024FFF76AFB2046BDE8F0818842A4
:1022900005D9401A20602846FFF704FCF1E700202A
:1022A0002060DCE7200000202DE9FF5F8346DDE9A8
:1022B0000E87994616468A469000FFF755FA0500A4
:1022C0001CD05420FFF750FA040014D000202563DE
:1022D00084F85100CDE90240CDE900874B463246F3
:1022E00051465846FFF76BF92046FFF73BF80120AF
:1022F00004B0BDE8F09F2846FFF744FB4FF0FF30E5
:10230000F6E7F0B585B0DDE90B640A9DA6B1DCB156
:10231000542700972663022684F85160002604AFF4
:10232000CDE90246CDE90057FFF749F92046FFF70E
:1023300019F8049805B0F0BD502080F31188BFF360
:102340004F8FBFF36F8FFEE7502080F31188BFF3EC
:102350004F8FBFF36F8FFEE70548C16919B1806BDE
:1023600018B100207047012070470220704700001C
:10237000200000202DE9F0412E4C0027A06B40B139
:10238000206A401C2062606A00B101273846BDE81F
:10239000F0816669761C666113D16068006838B1A7
:1023A000502080F31188BFF34F8FBFF36F8FFEE78C
:1023B0006068A1686160A060A06A401CA062FFF72D
:1023C00079F9206BDFF87080864209D36068006875
:1023D00080B16068C068C568686886420DD22063B5
:1023E0002068C06A00EB800158F821000128CAD992
:1023F0000127C8E74FF0FF30F1E7281DFFF73EFA4D
:10240000A86A18B105F11800FFF738FAE86A012147
:10241000A26981401143A16100EB800108EB8100BA
:10242000291DFFF76FFAE86A2168C96A8842CDD38F
:102430000127CBE7200000201C03002070B504001A
:102440004FF0000140D0214D2868844207D0502031
:1024500080F31188BFF34F8FBFF36F8FFEE7A06C3F
:1024600038B1401EA064636CE26A9A422CD040B13D
:102470002AE0502080F31188BFF34F8FBFF36F8F96
:10248000FEE7201DFFF7FAF9114A012150B9E06A71
:1024900000EB800352F8233023B9AB6901FA00F056
:1024A0008343AB61606CE062C0F10700A061E06A49
:1024B000AB6981401943A96100EB800002EB800009
:1024C000211DFFF71FFA0121084670BD20000020E2
:1024D0001C03002070B504004FF0000038D0204DE0
:1024E000E16A2A68D26A914233D2A069002804DBEB
:1024F0002868C06AC0F10700A0611A4E01EB810193
:10250000606906EB810188421ED1201DFFF7B6F9F4
:10251000012150B9E06A00EB800256F8222022B96E
:10252000AA6901FA00F08243AA612868C06AE062E1
:10253000AA6981401143A96100EB800006EB80008D
:10254000211DFFF7DFF902E02868C06AE062012080
:1025500070BD616C2A68D26A9142F8D370BD0000E8
:10256000200000201C0300202DE9F041C068C46851
:10257000ACB104F118000746FFF780F9154DA86BC0
:102580000126A0B139461448FFF7BCF9E06A296872
:10259000C96A88421CD901206E62BDE8F0815020D2
:1025A00080F31188BFF34F8FBFF36F8FFEE7201DBD
:1025B000FFF764F9E16AAA6906FA01F01043A8611D
:1025C00001EB81000449B43901EB8000211DDBE7F8
:1025D0000020E2E720000020D00300202DE9F04792
:1025E0002C4D00242746A86B38B1FFF797F9A86B4C
:1025F000401EA863A86B40B146E0502080F31188CC
:10260000BFF34F8FBFF36F8FFEE72969224E012082
:10261000D1B3A6F1B40980463068E8B1F068C46867
:1026200004F11800FFF72AF9201DFFF727F9E06AE7
:10263000AA6908FA00F11143A96100EB800109EBD6
:102640008100211DFFF75EF9E06A2968C96A8842A6
:10265000E2D3C5F82480DFE70CB1FFF72BF82C6A32
:1026600044B14646FFF786FE00B16E62641EF9D1A2
:1026700000202862686A38B10849012738070860D5
:10268000BFF34F8FBFF36F8FFFF768F93846BDE890
:10269000F087000020000020D003002004ED00E0BF
:1026A0000C27000871100008020000000000000064
:1026B0008000000000000000000000001427000857
:1026C0009D100008010000000000000080000000D4
:1026D00000000000000000001C270008F1100008A6
:1026E000000000000000000080000000000000006A
:1026F00000000000000000000000000001020304D0
:102700000607080900000000010203045461736B0E
:10271000310000005461736B320000005461736B30
:102720003300000044270008000000208000000063
:1027300028010008C427000880000020F0150000D0
:10274000440100080000000000000000000000003C
:102750000000000001000000100000000000000068
:102760000024F40000000000000000000000000051
:102770000000000000000000000000000000000059
:102780000000000000000000000000000000000049
:102790000000000000000000000000000000000039
:1027A0000000000000000000000000000000000029
:1027B000000000000000000000000000AAAAAAAA71
:0427C0000000000015
:04000005080000ED02
:00000001FF
